:020000040800F2
:1000000070080020DD4C0008DD4A0008DF4A0008C7
:10001000E14A0008E34A0008E54A00080000000041
:10002000000000000000000000000000E74A000897
:10003000E94A000800000000EB4A0008ED4A000809
:10004000294D00082D4D0008314D0008354D0008A0
:10005000394D00083D4D0008EF4A0008454D0008A5
:10006000494D00084D4D0008514D00085D03000842
:10007000594D00085D4D0008351E0008654D00080B
:10008000694D00086D4D0008714D0008754D000860
:10009000794D00087D4D0008814D0008854D000810
:1000A000894D00088D4D0008914D0008954D0008C0
:1000B000994D00089D4D0008A14D0008A54D000870
:1000C000A94D0008AD4D0008B14D0008B54D000820
:1000D000B94D0008BD4D0008C14D0008C54D0008D0
:1000E000C94D0008CD4D0008FF4A0008D54D000855
:1000F000D94D0008DD4D0008E14D0008550300080A
:10010000E94D0008ED4D0008F14D000865030008B9
:10011000F94D0008FD4D0008014E0008054E00088D
:10012000094E00080D4E0008114E0008154E00083B
:10013000194E00081D4E0008214E0008254E0008EB
:10014000294E00082D4E0008314E0008294B0008AA
:10015000394E00083D4E0008414E0008454E00084B
:10016000494E00084D4E0008514E0008554E0008FB
:10017000594E00085D4E0008614E0008654E0008AB
:10018000694E00086D4E000870B504000D001600A1
:10019000300000F0A9FDEDB2652D01DB642106E021
:1001A000EDB2FF2000FB05F0642190FBF1F132007D
:1001B000C9B2200080B200F0F8F8002801D0012078
:1001C00002E000F05BFC002070BD38B504000D00BB
:1001D0006808DFF8C819086000F058F9DFF8BC09B2
:1001E00000684008B0F5803F04D2DFF8B00900682D
:1001F000410801E04FF6FF71200000F0D1FCDFF86C
:100200009C090068B0F5803F03D2DFF890090068D0
:1002100001E04FF6FF70D0EB5500DFF8001A0860E0
:10022000DFF878090068B0F5803F03D2DFF86C0989
:10023000006801E04FF6FF7014EB4000DFF8A41AED
:100240000860002032BD80B5DFF84C090168DFF896
:100250001008006800F0CDFE00287AD0DFF8BC0955
:100260000068002861D0DFF8F807006800F0B7FEEA
:100270000028F8D1DFF820090168DFF8E4070068FA
:1002800000F0CEFEDFF85C0A0068DFF894198860A1
:10029000DFF888090068B0F5803F06D2DFF87C09F6
:1002A0000068DFF87C19086104E04FF6FF70DFF8A2
:1002B00070190861DFF86819DFF8A407006800F01A
:1002C0003DFE0121DFF89807006800F061FEDFF8CD
:1002D0004C090068B0F5803F03D2DFF840090068A0
:1002E00001E04FF6FF70DFF8FC19096811EB4000E0
:1002F000DFF8F0190860DFF824090068B0F5803FE6
:1003000003D2DFF81809006801E04FF6FF70DFF84C
:100310000C190968081ADFF8041908600121DFF8D0
:100320004007006800F034FE13E00021DFF83007DA
:10033000006800F02DFEDFF860080168DFF8200794
:10034000006800F06DFE0021DFF89809006800F0F9
:10035000F9FE01BD80B5FFF776FF01BD80B5FFF75F
:1003600072FF01BD80B50221DFF8200A00F0F9FF1D
:10037000002819D0DFF8E406006802280CD100F04C
:100380007AFC010089B2042001F05DF80021DFF859
:10039000FC0900F0C5FF07E000F06DFC010089B228
:1003A000DFF8E80900F0BCFF01BD70B50E001400D5
:1003B000002500F0B8FA00F090F800F04BFA0121A7
:1003C000022000F09CF84519AF21042000F097F8B6
:1003D0004519AF20DFF8B81908708121052000F019
:1003E0008EF845190421062000F089F845193000DF
:1003F000C0B200F04DF8DFF89C090068022818D15F
:100400000121082000F07BF845190121092000F0A6
:1004100076F84519C0210E2000F071F84519002129
:10042000142000F06CF845190021152000F067F841
:1004300045199E21022000F062F8451900210A208A
:1004400000F05DF84519DFF84C090068022804D077
:1004500004210E2000F053F845190021272000F058
:100460004EF845190F211F2000F049F845190A21BF
:100470001A2000F044F845190A211B2000F03FF82B
:100480004519200000F012FA280070BD00207047C6
:1004900038B504000025E4B2E72C0EDB14F1190195
:1004A000C9B2202000F02BF8451914F11901C9B286
:1004B000212000F024F845190DE014F11901C9B20A
:1004C000202000F01CF8451914F11901C9B22120AF
:1004D00000F015F84519280032BD80B50022102122
:1004E000DFF8B40801F012F844F6FF7000F0BAFA31
:1004F00001221021DFF8A00801F008F801BD38B58D
:1005000004000D0000205FF49610DFF890180860DA
:100510005FF40031DFF8880801F024F900280BD0DF
:10052000DFF878080068411EDFF8702811600028A5
:10053000EED100F0A1FA89E00121DFF8640801F0B2
:10054000C1F84FF48050DFF854180860DFF85418F1
:10055000DFF84C0801F0F1F800280BD1DFF83C0877
:100560000068411EDFF8342811600028EED100F049
:1005700083FA6BE000229421DFF8240801F0BEF832
:100580004FF48050DFF814180860DFF81C18DFF80B
:10059000100801F0D2F800280BD1DFF8000800683D
:1005A000411EDFF8F82711600028EED100F064FA50
:1005B0004CE02100C9B2DFF8E80701F0B8F84FF4C9
:1005C0008050DFF8D8170860DFF8E017DFF8D007B1
:1005D00001F0B3F800280BD1DFF8C0070068411E16
:1005E000DFF8B82711600028EED100F045FA2DE0C1
:1005F0002900C9B2DFF8A80701F099F85FF4961056
:10060000DFF8981708600AE0DFF890070068411EDD
:10061000DFF888271160002801D100F02DFADFF8FB
:100620009017DFF87C0701F09DF80028ECD001213D
:10063000DFF86C0701F054F82000C0B200F007F8B2
:10064000EDB2A84201D1002000E0012032BD38B552
:10065000040000255FF49610DFF8401708605FF48F
:100660000031DFF83C0701F07DF800280BD0DFF8FF
:100670002C070068411EDFF8242711600028EED106
:1006800000F0FAF9E5E00121DFF8140701F01AF8AB
:100690004FF48050DFF804170860DFF80817DFF820
:1006A000000701F04AF800280BD1DFF8F0060068D7
:1006B000411EDFF8E82611600028EED100F0DCF9D9
:1006C000C7E000229421DFF8D80601F017F84FF4B4
:1006D0008050DFF8C8160860DFF8CC16DFF8C006D7
:1006E00001F02BF800280BD1DFF8B0060068411E9E
:1006F000DFF8A82611600028EED100F0BDF9A8E0CF
:100700002100C9B2DFF8980601F011F84FF48050CB
:10071000DFF888160860DFF89816DFF8840601F025
:1007200021F800280BD1DFF874060068411EDFF8BD
:100730006C2611600028EED100F09EF989E00121BD
:10074000DFF85C0600F0BEFF4FF48050DFF84C1677
:100750000860DFF85016DFF8480600F0EEFF0028CA
:100760000BD1DFF838060068411EDFF83026116033
:100770000028EED100F080F96BE001229421DFF82F
:10078000200600F0BBFF4FF48050DFF81016086021
:10079000DFF82016DFF8080600F0E4FF00280BD190
:1007A000DFF8F8050068411EDFF8F0251160002829
:1007B000EED100F061F94CE00021DFF8E40500F033
:1007C000A8FFDFF8F40500880121DFF8D40500F068
:1007D00087FF4FF48050DFF8C4150860DFF8DC15A0
:1007E000DFF8BC0500F0BEFF00280BD1DFF8AC0538
:1007F0000068411EDFF8A42511600028EED100F04A
:100800003BF926E0DFF8980500F094FF05004FF46F
:100810008050DFF888150860DFF8840500888005BF
:100820000BD5DFF878050068411EDFF870251160F0
:100830000028F1D100F020F90BE00121DFF860057C
:1008400000F067FFDFF87815DFF8540500F0ABFF24
:10085000280032BD00B585B001215FF4001001F021
:1008600041F8DFF83C0500F087FE0020ADF80400F9
:100870004BF6FF70ADF806003320ADF808004FF4DA
:100880008060ADF80A004FF48040ADF80C00DFF84E
:10089000340500900121DFF8080500F005FF6946E6
:1008A000DFF8FC0400F093FE05B000BD10B588B081
:1008B000040001214FF4004001F014F8DFF8CC04EB
:1008C00000F074FC02940020ADF802000020ADF8A6
:1008D00004000020ADF80C004FF40070ADF80000EB
:1008E0004FF40070ADF806006946DFF8A00400F090
:1008F00088FCDFF8A0040068022812D101215FF013
:10090000005000F0EFFF0020049000200590002030
:10091000079004A9002000F069FD0121002000F0EB
:100920007CFD08B010BD00B583B00121082000F0A7
:10093000B9FF1020009001208DF8040001208DF8EF
:10094000050000208DF8060000208DF8070069469C
:10095000DFF8440400F088FD0121072000F0A2FF29
:100960004FF41070009002208DF8040002208DF8E2
:10097000050001208DF8060000208DF8070069466B
:10098000DFF8440400F070FD04220621DFF838048B
:1009900000F0C3FD04220921DFF82C0400F0BDFDA6
:1009A0004FF4A050009002208DF8040002208DF832
:1009B000050000208DF8060000208DF8070069462C
:1009C000DFF8080400F050FD06220421DFF80004DF
:1009D00000F0A3FD06220A21DFF8F00300F09DFDE0
:1009E0001E48006802280DD0102000906946DFF8EC
:1009F000E00300F039FD06220C21DFF8D00300F0FF
:100A00008CFD10E00121012000F04CFF102000902F
:100A100003208DF8040000208DF807006946DFF8F8
:100A2000B00300F021FD8020009002208DF804002A
:100A300002208DF8050000208DF8060000208DF8BA
:100A400007006946DFF8840300F00EFD0622072147
:100A5000DFF8780300F061FD07BD00001C000020F6
:100A60002400002001B402E00098401E009000988D
:100A70000028F9D101B07047FEE7000000B583B04F
:100A800000BFDFF810030068012864D10121DFF8FE
:100A90004403006800F006FF0021DFF83C03006813
:100AA00000F076FADFF83003006800F0ADF9DFF807
:100AB0002C0300685A490860DFF82403006858498D
:100AC000486000205649886040205549C8604FF66C
:100AD000FE70534908610020514948614FF480601D
:100AE0004F4988614FF400604D49C8614FF4005090
:100AF0004B49086200204A4948625FF40030484987
:100B0000886200204649C8620020454908630020E9
:100B1000434948630020424988634149DFF8B802ED
:100B2000006800F00BFA01221021DFF8AC02006827
:100B300000F086FADFF8AC0200688DF804000A20A5
:100B40008DF805000A208DF8060001208DF80700B9
:100B500001A800F026FF8F480068012805D1012276
:100B600002218A4800F0DEFB15E000F05BF801226C
:100B70007121864800F0E2FB33208DF800000A2046
:100B80008DF801000A208DF8020001208DF8030085
:100B9000684600F006FF07BD30000020140000206A
:100BA00038B504000D00904801688B48006800F0DB
:100BB00037FA7848006801280FD119488460680026
:100BC0001749086116498448006800F0B7F9012107
:100BD0008148006800F0DCF917E0002083490880B4
:100BE00083480460280080B24000824908800C4895
:100BF00084600B4805610A497748006800F09EF957
:100C000001217548006800F0C3F97B480088400561
:100C100003D401215D4800F075FB31BD1C1200209A
:100C20006C11002000B587B00121744800F03AFE35
:100C300001215FF0005000F055FE102000900320CD
:100C40008DF8040000208DF807006946604800F028
:100C50000BFC002002900020039002200590002051
:100C6000049002A9002000F0C1FB0121002000F047
:100C7000D4FB07B000BD5F4800885C490988884202
:100C80002CD35A480088401C5849088041480068C5
:100C9000022816D15648006854490978C90709D472
:100CA00053490968891C524A116051490968891CD5
:100CB0004F4A1160B0F90000B0F50040504908807B
:100CC00009E04B4800684A490968891C484A116094
:100CD00000884B4908804A48008801E0484800885D
:100CE000704700002012002010B50400002000F022
:100CF00068FDB4F5FA5F19D042F61130844220D075
:100D0000B4F57A5F18D045F2226084422FD0B4F552
:100D1000FA4F1BD04AF6444084422ED04BF6803026
:100D2000844218D0374884421BD02BE005214FF471
:100D3000807000F03FFD25E00221D52000F03AFD53
:100D400020E00221D52000F035FD1BE00221D52056
:100D500000F030FD16E003214FF4817000F02AFD11
:100D600010E002214FF4AC7000F024FD0AE00421F1
:100D700040F2AD1000F01EFD04E0022140F20F1021
:100D800000F018FD012000F01CFD10BD003C0040EB
:100D9000531200201C000020000C0240180000200C
:100DA000005400400100030082000700800007009B
:100DB0000400001002000010185400404000001011
:100DC00000040010A0860100000402400008024058
:100DD00000000240200000202400002028120020F3
:100DE000280000202C000020300000204E1200209F
:100DF000241200204C1200201C3C00400100200066
:100E00005012002000770100016849084900016084
:100E10000021016000214160002181600021C1604A
:100E20000021016121214161DFF85412884204D17F
:100E30003D20DFF8501208607FE0DFF84C12884256
:100E400005D14FF47460DFF83C12086075E0DFF8FC
:100E50003C12884205D15FF47410DFF82812086054
:100E60006BE0DFF82C12884205D15FF07460DFF888
:100E70001412086061E0DFF81C12884205D1DFF827
:100E80001802DFF81812086057E0DFF814128842E1
:100E900005D1DFF81002DFF8041208604DE0DFF83A
:100EA0000812884205D1DFF80402DFF8F01108606B
:100EB00043E0DFF8FC11884204D15FF03D507749F0
:100EC00008603AE07B49884203D13D207A490860B6
:100ED00033E07A49884204D14FF47460764908605F
:100EE0002BE07749884204D15FF47410724908609E
:100EF00023E07449884204D15FF074606E49086051
:100F00001BE07149884203D163487049086014E0CE
:100F10006F49884203D163486C4908600DE06D4910
:100F2000884203D161486949086006E06A498842FD
:100F300003D15FF03D5065490860704710B400224E
:100F40000268664B1A400B68CC6823434C69234304
:100F50008C692343CC6923430C6A23434C6A2343A3
:100F60008C6A23434C6B23438C6B23431A430260EC
:100F70004269D208D200CB6A0C6B23431A43426108
:100F80000A6942604A6882608968C16010BC704723
:100F9000C9B2002904D0016851F00101016003E0E9
:100FA00001684908490001607047002A04D00268BE
:100FB00052F40022026003E0026832F40022026070
:100FC00001617047C9B2002904D0016851F4802141
:100FD000016003E0016831F4802101607047002165
:100FE0000068C00701D5012100E000210800C0B25F
:100FF0007047002200222F4A904201D2384800E078
:1010000038488A0001D5426800E00268364802404C
:101010000A4201D0012200E000221000C0B2704755
:10102000244A904201D22E4800E02E488A0003D57F
:101030002D4A1140C16002E02B4A11408160704787
:101040000B060BD5D2B2002A04D0436953F08003BB
:10105000436103E0436933F08003436180290ED08C
:10106000D2B2002A05D0026811F01E0111430160BE
:1010700005E0026811F01E0132EA010101607047CB
:101080001060024008600240286002404060024058
:1010900058600240706002403D0000200C60024039
:1010A00088600240400F0020A060024000003D2008
:1010B000B8600240106402400864024028640240A4
:1010C0004064024058640240706402400C64024074
:1010D00088640240A0640240B86402403F801CF073
:1010E00000600240006402407D0F7D0F00B585B0B6
:1010F0000021002000F0D6FC002000F08DFC012033
:1011000000F08AFC022000F087FC032000F084FC41
:1011100001A800F05BFB4FF47A5256210220FFF742
:1011200033F81A4800901A4B1A4A01211A4800F065
:101130001FFD00F0BBFE40211848FFF746F800BF36
:10114000FDE7000080B500BF002009E01449C0B2EF
:10115000421031F91210114AC0B222F81010401C8E
:10116000C0B220280DDA0F4909780129EED10E49C5
:10117000C0B2421031F91210084AC0B222F8101061
:10118000EDE740210548FFF720F801BD48010020A8
:101190004800002014010020700800202C0F0020BF
:1011A000DC11002068040020FC11002080B54E49AD
:1011B00088420AD101214FF4805000F0C3FB002186
:1011C0004FF4805000F0BEFB1AE0484988420AD133
:1011D00001214FF4804000F0A5FB00214FF4804036
:1011E00000F0A0FB0CE04249884209D101214FF4F4
:1011F000004000F097FB00214FF4004000F092FB0C
:1012000001BDF0B4002202230024012300230024A6
:10121000002400250026828B4FF240031A4082836F
:1012200002220284828B8B68022B02D100240223CB
:1012300042E08B88002B01D1012300E002232D4CDA
:101240002468240205D52B4C246834F40004294D6D
:101250002C60294C2468C4F38815274C2468C4F3F7
:101260000276264C246814F03F04254FB7FBF4F4B3
:101270006C43B4FBF6F4CD88B5F5007F08D1230AA2
:101280000A2463438C68B3FBF4F35B1D9BB20AE052
:101290009BB25B01B4FBF3F30A2463438C68B3FB9A
:1012A000F4F35B1D9BB20A24B3FBF4F313F00104C7
:1012B000A4B21B1B5B0824029BB29D1EFE2D01D312
:1012C00002230024CD882C43234303840B884C88BD
:1012D0008D88898929432143194351F400610A43C8
:1012E0008283F0BC704700000030014000380040AD
:1012F000003C004008380240843802400438024074
:1013000000127A00C9B2002904D0818B51F48061A7
:10131000818304E0818B4FF6FF3211408183704757
:1013200081817047D2B2002A03D082881143818024
:1013300003E0828832EA01018180704700230023A4
:10134000C9B20B09DBB2012111FA03F3D2B2002AB0
:1013500003D081881943818002E08188994381808C
:10136000704700220089084201D0012200E00022DB
:101370001000C0B27047F0B401684468836809186F
:1013800001EB5402E40748BF4B440C3091422BD090
:1013900011F8014B14F0030504BF11F8015BED1CBB
:1013A00026090F2E07D111F8016B0F3603E011F853
:1013B000017B03F8017B6D1EF9D1002EE6D0A40855
:1013C00011F8015B04F00304032C08BF11F8014B72
:1013D00005EB04241C1BB51CD8D014F8016B03F8D2
:1013E000016B6D1EF9D1D1E7F0BC704710B400223B
:1013F00000231C4A126840F6FE7383409A430B6830
:101400004C6823438C682343C9680B4313FA00F0EC
:1014100002431448026010BC7047C9B2002908D0CA
:1014200010490968012212FA00F008430D490860CA
:1014300008E00C490968012212FA00F031EA0000C4
:1014400008490860704781B000220092054A009266
:10145000009A08308018009089B20098016001B0AD
:10146000704700000074004030B4002200230024C4
:10147000002247E0012393400C681C409C4240D16D
:10148000036803241500EDB26D00AC40A343036074
:1014900003680C791500EDB26D00AC402343036086
:1014A0000B79012B02D00B79022B1AD1836803240C
:1014B0001500EDB26D00AC40A343836083684C79A6
:1014C0001500EDB26D00AC402343836043680124F6
:1014D0009440A343436043688C799440A4B223436F
:1014E0004360C36803241500EDB26D00AC40A34314
:1014F000C360C368CC791500EDB26D00AC402343E6
:10150000C360521C102AB5D330BC7047D2B2002A37
:1015100001D0018300E04183704770B400230023B1
:10152000D2B211F00703DBB29B0012FA03F389B2C7
:10153000CA1010EB820289B2CC1010EB8404246A2A
:101540000F2511F00706F6B2B600B540AC431462A1
:1015500089B2CA1010EB8202126A134389B2C91011
:1015600010EB8100036270BC704770477047704792
:10157000704770477047704780B5454988420AD127
:1015800001215FF4001000F0CDF900215FF400109C
:1015900000F0C8F91AE03F4988420AD101215FF4FE
:1015A000800000F0BFF900215FF4800000F0BAF97C
:1015B0000CE03949884209D101215FF4000000F0B4
:1015C000B1F900215FF4000000F0ACF901BD7FB576
:1015D00004000D000026002004213049A6884FF6A3
:1015E000C0700640684600F0F1F802992C48B1FB43
:1015F000F0F00643A68022884FF6FE731A40228040
:1016000000262A68274B9A420BD22A685200B1FB67
:10161000F2F189B2042900DA04210E43401C20842F
:1016200022E0EA884BF6FF739A4205D12A68032329
:101630005A43B1FBF2F106E02A6819235A43B1FB81
:10164000F2F151F480410A0501D151F0010151F448
:1016500000410E4380B24FF4967148434FF47A71C3
:1016600090FBF1F0401C2084A683208850F00100FC
:10167000208026884FF6F5300640A88869890843FF
:1016800006432680A8892989084320817FBD000060
:101690000054004000580040005C004000127A00F6
:1016A00040420F00A1860100C9B2002904D0018880
:1016B00051F00101018004E001884FF6FE721140F3
:1016C00001807047C9B2002904D0018851F48071AB
:1016D000018004E001884FF6FF62114001807047ED
:1016E000C9B2002904D0018851F40071018004E0DE
:1016F00001884FF6FF52114001807047D2B2002A94
:1017000002D051F0010101E011F0FE01C9B20182E5
:101710007047C9B2002904D0018851F4806101806A
:1017200004E001884FF6FF32114001807047C9B2D2
:1017300001827047008AC0B2704700220022002355
:101740000022828A038B1B0453EA02000202120A5F
:1017500011EA0200884201D1012200E000221000BB
:10176000C0B2704782B0020000200020019000202B
:1017700000900092080F01900902090A01980028C0
:1017800003D000981430009003E0090C0098183042
:10179000009000980068084201D0012000E000207D
:1017A000C0B202B0704700220A02120AD1438182FD
:1017B00070470100090751EA8010DFF8B011086096
:1017C0007047C0B2DFF8A8110860704700210021FF
:1017D0000021022200210222DFF88811096811F09D
:1017E0000C01002904D0042906D0082908D033E0D0
:1017F000DFF88011016032E0DFF87C1101602EE03B
:10180000DFF864110968C1F38051DFF85C211268C8
:1018100012F03F0200290AD0DFF85C11B1FBF2F1AF
:10182000DFF844211268C2F38812514309E0DFF85F
:101830004411B1FBF2F1DFF830211268C2F38812D3
:101840005143DFF824211268C2F30142521C5200B6
:10185000B1FBF2F1016002E0DFF818110160DFF87E
:101860000411096811F0F0010909DFF81021895C01
:101870000268CA4042603B49096811F4E051890A94
:10188000DFF8F820895C4268CA40826035490968FF
:1018900011F46041490BDFF8E420895C4268CA40DA
:1018A000C2607047C9B2002905D0354909680843AC
:1018B0003349086005E03249096831EA00003049DF
:1018C00008607047C9B2002905D02E49096808434D
:1018D0002C49086005E02B49096831EA00002949D4
:1018E00008607047C9B2002905D027490968084334
:1018F0002549086005E02449096831EA00002249C9
:1019000008607047C9B2002905D02049096808431A
:101910001E49086005E01D49096831EA00001B49BD
:1019200008607047C9B2002905D019490968084301
:101930001749086005E01649096831EA00001449B2
:1019400008607047C9B2002905D0124909680843E8
:101950001049086005E00F49096831EA00000D49A7
:10196000086070470838024004380240843802405A
:10197000680047420024F40000127A00340000207E
:101980003038024034380240403802404438024087
:1019900020380240243802401A4908431A49086096
:1019A0007047002100220F23C17800291ED016495C
:1019B000096811F4E061D1F5E061090AD1F104028E
:1019C000DBB20B414178914082781A401143090102
:1019D0000E4A037899540121027812F01F029140B7
:1019E0000B4A0078401142F8201009E001210278EA
:1019F00012F01F029140074A0078401142F820106F
:101A0000704700000000FA050CED00E000E400E083
:101A100000E100E080E100E01CB5040001214A483B
:101A2000E4B250F82400FFF73DFF4848E4B230F834
:101A30001400009001208DF8040000208DF80600AD
:101A400001208DF8070002208DF805006946404806
:101A5000E4B250F82400FFF707FD13BD3B49C0B2C4
:101A600031F810103A4AC0B252F820000183704792
:101A70003649C0B231F81010354AC0B252F82000D1
:101A8000418370473249C0B251F8201049692F4A4A
:101A9000C0B232F8102051402D4AC0B252F8200096
:101AA0004161704730B585B004000D00012129481F
:101AB000E4B250F82400FFF7F5FE01214FF4804016
:101AC000FFF720FF00208DF8100000208DF8130094
:101AD0002148E4B230F81400039003A91F48E4B28F
:101AE00050F82400FFF7C0FCEDB2012D29D11C48AD
:101AF000E4B2215C1B48E4B2205C00F0EDFA1A4825
:101B0000E4B230F81400019000208DF8080008209D
:101B10008DF8090001208DF80A0001A800F006FBED
:101B20001248E4B2205C8DF800000F208DF801000F
:101B30000F208DF8020001208DF803006846FFF7A2
:101B400030FF05B030BD00008C4C0008F84C000898
:101B500000000020004D0008B2170008100000200F
:101B60003F2500083E250008321E0008462C0008CC
:101B7000F8B504000D0016001F00200000F026FB41
:101B8000200000F014F8C4F8E4750698C4F8E805DD
:101B9000C4F8EC652900C9B2200000F09EFBD4F81F
:101BA000E80500688047200000F065FBF1BD0020DB
:101BB00070471CB504006946200000F085FF9DF8C1
:101BC000000010F01F00C0B2002803D002280BD084
:101BD00005D30EE06946200000F0B2FC10E0694633
:101BE000200000F0D9FC0BE06946200000F0FBFC6F
:101BF00006E09DF8000010F08001200000F047FC96
:101C0000002016BD10B50400C9B2002933D114F567
:101C10005D7094F8111103293CD18168C269914229
:101C200017D2C1698268891AC161E178012903D19B
:101C3000C16882685118C160C1698268914201D24D
:101C4000C26900E0826892B2C168200000F0CCFF57
:101C500020E0D4F8E4050069002808D094F81201C7
:101C6000032804D12000D4F8E4150969884720002E
:101C700000F0C5FF0EE0D4F8E4058069002809D023
:101C800094F81201032805D1C9B22000D4F8E42544
:101C900092699047002010BD38B50400C9B20029F0
:101CA00048D114F58E7594F81101022837D1A8682F
:101CB000E96988420AD2E869A968401AE861EA69D4
:101CC00092B2E968200000F070FF28E0286AA96855
:101CD000B0FBF1F201FB120000280FD1286AA968BD
:101CE00088420BD3286A696A884207D20022002101
:101CF000200000F05AFF0020686210E0D4F8E405EC
:101D0000C068002808D094F81201032804D12000EC
:101D1000D4F8E415C9688847200000F082FF94F8E1
:101D20001601012815D1200000F015F8002084F8D4
:101D300016010EE0D4F8E4054069002809D094F8B3
:101D40001201032805D1C9B22000D4F8E425526954
:101D50009047002032BD03490968006941600020B6
:101D6000704700003812002010B504000023402204
:101D70000021200000F0FCFA0023402280212000F6
:101D800000F0F6FA012084F81201A078D4F8E815E2
:101D900049688847002010BD10B50400D4F8E80554
:101DA0000069804794F8130184F81201032084F835
:101DB0001201002010BD80B590F8121180F81311A7
:101DC000042180F81211D0F8E805C068804700208F
:101DD00002BD80B5D0F8E415C969002903D0D0F858
:101DE000E415C9698847002002BD10B50400C9B2D6
:101DF0002000D4F8E42512689047D4F8E8058068FC
:101E00008047002010BD80B5C9B2D0F8E4255268E3
:101E10009047002002BD80B5D0F8E415096A8847D4
:101E2000002002BD80B5D0F8E415496A884700203B
:101E300002BD010070B51E240120FFF70FFE5FF008
:101E4000C0519548FFF7D5F800282BD05FF0C0515E
:101E50009148FFF7E5F890480068000303D48F4AE3
:101E60008F49012502E08F4A8F49002500200EE0AE
:101E7000C0B232F810309BB2C0B232F810603602F5
:101E800056EA1323894EC0B226F81030401CC0B267
:101E90004028EDDB864B220092B2844800F04EFFD2
:101EA000844805700120FFF7E3FD70BD80B5012275
:101EB00010214FF47A4000F005F81021002000F0C6
:101EC00032F801BD10B504007B480068002801D03D
:101ED000002027E07948006850F480507749086076
:101EE0007348774941607248764981604FF47A506F
:101EF0006F49088001206E49C88101206C498881A2
:101F00006B4800F0A1FE4FF44070FFF745FD00F074
:101F10006FF8200000F09AF800F012F801206649EE
:101F20000860002010BD80B563480068002805D017
:101F300001216548FFF7E6F9002000E0012002BD1D
:101F400000B591B001215FF40010FFF7ABFC002158
:101F50005148FFF71DF85048FEF756FF002001904A
:101F60005A4802904F48039000200490402005906A
:101F7000002006904FF4806007904FF400600890B6
:101F80004FF4005009904FF480700A905FF40030D5
:101F90000B9000200C9000200D9000200E9000204F
:101FA0000F9001A93C48FEF7C9FF00223B493A487F
:101FB000FEF7FBFF012210213748FFF741F801210E
:101FC0003548FEF7FFFF0E208DF800000A208DF83F
:101FD00001000A208DF8020001208DF803006846F8
:101FE000FFF7DFFC01212C48FEF7D2FF11B000BD46
:101FF00000B583B001210620FFF754FC0121062023
:10200000FFF750FC02208DF8040000208DF8060038
:1020100000208DF8070002208DF805004FF4806045
:10202000009069462A48FFF71FFA05220A2128482E
:10203000FFF773FA0820009069462648FFF714FA64
:10204000052203212348FFF768FA07BD1FB50400E6
:1020500001214FF48040FFF745FC1B48FFF7A6F82D
:10206000600802902020ADF802000020ADF80400C6
:102070000820ADF80C004FF44070ADF800000020CF
:10208000ADF8060069461048FFF7BBF801220121B0
:102090000D48FFF747F91FBD586002402C10002083
:1020A000FC110020AC0F0020DC110020AC1000203F
:1020B000A811002068040020481200203038024097
:1020C0000000FA4500004843003800400C3800404A
:1020D000000402400008024010B400220F2211F058
:1020E0000303DBB29B009A400F4BC9B28C1053F82C
:1020F000243033EA02020C4BC9B28C1043F824207E
:10210000094AC9B28B1052F82320C0B211F0030360
:10211000DBB29B0098401043034AC9B2891042F8D1
:10212000210010BC704700000838014000212249FE
:102130008279002A35D0204A126803689A431E4BE0
:102140001A601E4A126803689A431C4B1A6002798F
:1021500089180A6803681A430A60194909680268FD
:102160009143174A11601749096802689143154A5B
:102170001160417910290CD1114909680268114395
:102180000F4A11600F490968006808430D4908604B
:102190000EE00949427989180A680068104308600E
:1021A00006E0027989180A68006832EA00000860CF
:1021B0007047054908607047003C0140043C0140FD
:1021C000083C01400C3C0140143C014000B583B088
:1021D00001210120FFF766FB4FF4C050009003205F
:1021E0008DF8050002208DF8040000208DF806000F
:1021F00000208DF8070069463148FFF735F90A22BB
:102200000B212F48FFF789F90A220C212C48FFF7F0
:1022100084F94FF40070009003208DF80500002031
:102220008DF8040001208DF8060000208DF80700CD
:1022300069462348FFF718F94FF4806000900120A9
:102240008DF8060001208DF8070003208DF80500A9
:1022500069461B48FFF708F90A220A211848FFF7C8
:102260005CF901214FF48040FFF74CFB01218020F5
:10227000FFF728FB07BD80B54FF4C060FFF78CFB6C
:1022800043208DF8000001208DF8010003208DF817
:10229000020001208DF803006846FFF782FB01BDB4
:1022A0000021084A1268084BB2FBF3F200FB02F06F
:1022B0000722B0FBF2F0FFE7491C8842FCD27047CE
:1022C000000002404400002040420F0080B54FF45F
:1022D0007A714843FFF7E4FF01BD10B50400C9B2AD
:1022E000200000F021FF012084F81201002084F872
:1022F0001401002011E0282101FB004111F58E712D
:1023000001224A700870C8800022CA7040228A6088
:102310000022CA6000224A61401C61788842EAD3E8
:10232000002011E0282101FB004111F55D71002220
:102330004A700870C8800022CA7040228A60002259
:10234000CA6000224A61401C61788842EAD32000BA
:1023500000F0BDFF200000F054FF0021200001F03C
:1023600009F8200001F040F8200000F0A4FF10BDA3
:1023700038B5C9B20C0608D5C9B211F07F042825BA
:1023800005FB040414F58E7407E0C9B211F07F0454
:10239000282505FB040414F55D7411F07F052570F4
:1023A000C9B2C909617092B2A260E3706178002974
:1023B00001D02178E180DBB2022B01D10021217113
:1023C000210001F02CF9002032BD80B5C9B20A0607
:1023D00008D5C9B211F07F02282303FB020212F5CF
:1023E0008E7207E0C9B211F07F02282303FB0202BC
:1023F00012F55D7211F07F031370C9B2C9095170F3
:10240000110001F045F9002002BD38B5C9B211F044
:102410007F04282505FB040414F55D74E2609BB27B
:1024200063610023A3610023637011F07F012170B9
:10243000C178012900D122612178002903D121002E
:1024400001F003FA02E0210001F04DF9002032BD55
:1024500038B5C9B211F07F04282505FB040414F532
:102460008E740125657011F07F012170E260226198
:102470000021A16163612178002903D1210001F0CD
:10248000E4F902E0210001F02EF9002032BD80B510
:10249000C9B20A0608D5C9B211F07F02282303FB8E
:1024A000020212F58E7205E0C9B2282202FB010277
:1024B00012F55D720123937011F07F031370C9B29E
:1024C000C9095170110001F053FA002002BD80B516
:1024D000C9B20A0608D5C9B211F07F02282303FB4E
:1024E000020212F58E7205E0C9B2282202FB010237
:1024F00012F55D720023937011F07F031370C9B25F
:10250000C9095170110001F051FA002002BD80B5D7
:10251000C9B20A0605D5C9B211F07F0100F0E4FE88
:1025200001E000F004FF002002BD0022C9B261F307
:102530000A120169096811430069016070470000CF
:1025400010B500244A78002A18D0012A1CD0032A8A
:1025500017D0052A09D0062A04D0082A0BD0092A48
:1025600006D014E000F0F3F813E000F082F910E078
:1025700000F0ABF90DE000F008FA0AE000F021FAF3
:1025800007E000F039FA04E000F084FA01E000F01E
:10259000BDFA2000C0B210BD70B504000D000026C9
:1025A00094F81201032817D1287902280FDA29009C
:1025B0002000D4F8E42592689047E88800280AD1E2
:1025C000F6B2002E07D1200000F019FB03E029002D
:1025D000200000F09BFA03E02900200000F096FAAA
:1025E0003000C0B270BD70B505000E000024B18887
:1025F0007078002860D0012830D0032840F0A480F3
:1026000095F81201022802D003280BD021E0C9B2AC
:10261000002906D0C9B2802903D0C9B22800FFF72B
:1026200036FF1AE07088002809D1C9B2002906D007
:10263000C9B2802903D0C9B22800FFF728FF3100B2
:102640002800D5F8E42592689047280000F0D7FAD2
:1026500003E03100280000F059FA75E095F8120106
:10266000022802D003280BD021E0C9B2002906D0ED
:10267000C9B2802903D0C9B22800FFF708FF1AE0C9
:102680007088002812D1C9B200290CD0C9B28029A3
:1026900009D0C9B22800FFF71AFF31002800D5F889
:1026A000E42592689047280000F0A9FA03E0310081
:1026B000280000F02BFA47E095F81201022802D01A
:1026C00003280BD03BE0C9B2002906D0C9B280294B
:1026D00003D0C9B22800FFF7DAFE34E0C9B2080619
:1026E00013D5C9B211F07F00282101FB005090F8EA
:1026F0001E01002804D00120DFF88413086017E0D1
:102700000020DFF87C13086012E0080610D4C9B27C
:10271000282000FB015090F87603002804D0012007
:10272000DFF85C13086003E00020DFF85413086052
:102730000222DFF84C13280000F023FA03E03100F6
:10274000280000F0E3F9FFE72000C0B270BD38B503
:1027500004000D00688880B2000AC0B2012808D0C9
:10276000022827D0032830D0062869D007286CD04B
:1027700070E06946A078D4F8EC2512689047E988A3
:10278000402903D094F81211012902D10821ADF893
:102790000010BDF8001000296AD0E988002967D030
:1027A000BDF80010EA88914259D2BDF80010ADF88A
:1027B000001057E06946A078D4F8E425926A904763
:1027C00002214170C4F8F005E3E7A878002808D09A
:1027D000022814D00CD304281FD017D3052823D0E7
:1027E00029E06946A078D4F8EC2552689047D0E7F4
:1027F0006946A078D4F8EC2592689047F7E76946D7
:10280000A078D4F8EC25D2689047F0E76946A07824
:10281000D4F8EC2512699047E9E76946A078D4F826
:10282000EC2552699047E2E76946A078D4F8EC2598
:1028300092699047DBE72900200000F067F917E074
:102840002900200000F062F912E02900200000F0C9
:102850005DF90DE02900200000F058F908E0E98852
:10286000ADF80010BDF800200100200000F089F94B
:1028700031BD38B504008888002822D1C8880028D6
:102880001FD1887810F07F0594F81201032803D136
:10289000200000F03BF917E084F814512900C9B278
:1028A0002000FFF742FE200000F0A9F9EDB2002D54
:1028B00003D0022084F8120106E0012084F81201FE
:1028C00002E0200000F022F931BD10B50400488874
:1028D0006C4A10706B480078022803DB200000F07F
:1028E00015F951E094F81201022802D0032818D0FB
:1028F00047E06448007800280FD06248007884F8E8
:102900001001032084F812015E4801782000FFF7CF
:102910006CFA200000F073F902E0200000F06FF97B
:1029200032E05848007800280FD1022084F81201C4
:102930005448007884F81001524801782000FFF7CD
:1029400062FA200000F05BF91AE04E48007894F833
:102950001011884211D094F810112000FFF753FA9B
:102960004848007884F81001464801782000FFF7B5
:102970003CFA200000F043F902E0200000F03FF9AB
:1029800002E0200000F0C2F810BD80B5CA88012A1C
:1029900002D000F0BBF813E090F81221022A02D016
:1029A000032A05D00AE00122374900F0EAF807E0DF
:1029B000012210F5887100F0E4F801E000F0A6F8BB
:1029C00001BD80B590F81221921E012A11D8002174
:1029D0002E4A1160D0F81811002905D02B4909683A
:1029E00051F00201294A11600222284900F0C9F879
:1029F00001E000F08BF801BD10B50400002248880A
:102A000001280BD10120C4F818012000D4F8E425D6
:102A100092689047200000F0F2F830E048880228E1
:102A20002DD1087900062AD120694068898889B2A9
:102A30000A0AD2B2012A07D019D3032A0CD007D32D
:102A4000052A11D00CD312E0012161F306100EE02B
:102A5000022161F306100AE0032161F3061006E08B
:102A6000042161F3061002E0052161F30610084914
:102A70000860012084F81601200000F0C0F810BDA5
:102A80003C12002056120020401200204412002068
:102A90003812002010B5040094F81201801E01289D
:102AA0000ED8488801280AD10020C4F81801200057
:102AB000D4F8E42592689047200000F0A0F802E0E6
:102AC000200000F023F810BD90F8CC250A7090F893
:102AD000CD254A7090F8CE2590F8CF351B029A1874
:102AE0004A8090F8D02590F8D1351B029A188A8038
:102AF00090F8D22590F8D3351B029A18CA80C9885D
:102B0000C0F84011012180F81111704710B5040080
:102B100080212000FFF7BBFC00212000FFF7B7FC5D
:102B2000200000F07AFF10BDF8B504000D0017007A
:102B30000026002C1AD0200000F019F84000801C5C
:102B400038803888F6B27055761C0320F6B270557E
:102B5000761C08E02078F6B27055641C761C0020C4
:102B6000F6B27055761C20780028F3D1F1BD002113
:102B700001E0491C401C0278002AFAD10800C0B2CA
:102B8000704710B5002492B2C0F83C2192B2C0F850
:102B90003821022380F8113192B213000A0000217B
:102BA000FFF756FC2000C0B210BD10B5002492B251
:102BB00013000A000021FFF74BFC2000C0B210BD3B
:102BC00010B5002492B2C0F8942392B2C0F89023BA
:102BD000032380F8113113009BB20A000021FFF794
:102BE00014FC2000C0B210BD10B5002413009BB22D
:102BF0000A000021FFF709FC2000C0B210BD38B563
:102C000004000025042084F8110100230022002183
:102C10002000FFF71DFC200000F0FFFE2800C0B2DE
:102C200032BD38B504000025052084F811010023C9
:102C3000002200212000FFF7E8FB200000F0EDFE5D
:102C40002800C0B232BD06002DE9F04F0646DFF87D
:102C5000DC03DFF8DC130160DFF8D813006888427A
:102C600036D1DFF8D403016006F110070020F860C8
:102C7000B86078603860B8617861386174682046FF
:102C8000002100F001FF24D04FF08740214600F0E2
:102C900009FF00F011FF05468946204600F00CFFB1
:102CA00004468846308800F039FFDFF89023DFF8CB
:102CB000903300F041FF2246434601F069F8024696
:102CC0000B462846494600F037FF01F0D5F801E0F1
:102CD000FEE70020B883B4682046002100F0D4FE4F
:102CE00022D03588280200F00FFF82468B4620460E
:102CF00000F0E2FE02460B46DFF84003DFF8401327
:102D000001F0E0F804468846284600F007FF224616
:102D1000434601F03DF802460B465046594600F046
:102D20000BFF01F0A9F800E00020F88330884FF491
:102D30007A7190FBF1F03884BDE8F08F2DE9FE4FF9
:102D400096B0DFF8F4120968DFF8E822914200D06B
:102D5000FEE71946103100910969009A52690792FD
:102D6000009A92690392009AD2F8009052680692F3
:102D7000009A9268009BDB68189CA4890194009CCF
:102D8000A48B0594009CE48B089400244FF4807578
:102D9000059EAD1B0D95019DC5EBC5050C95019DCF
:102DA00005EB450675000B95019D05EB85050A951C
:102DB000019D05EB45050995009D2D8C012DC0F267
:102DC0001D810578DFF87062AD19069E95F80472D2
:102DD000BE190E9695F8046109EB46072D79019E00
:102DE000365CDFF854C2664496F804C26744029722
:102DF0000F9796F8047105EB47053679019F10F897
:102E00001770DFF834C2674497F804C26544109520
:102E100097F804C106EB4C063F79DDF824C01CF896
:102E200000C0DFF814E2E6449EF804C2664411963E
:102E30009EF804C107EB4C079EF804E0DDF804C0DF
:102E400010F82CC0DFF8F081E04498F804C2674421
:102E5000129798F804C10EEB4C0C98F80480DDF83A
:102E600028E01EF800E0DFF8D091F14499F804E280
:102E7000E644CDF84CE099F804C108EB4C0C99F805
:102E800004A0DDF82C8018F80080DFF8AC91C14474
:102E900099F80482E044CDF8508099F804C10AEB17
:102EA0004C0A99F80490DDF830C01CF800C0DFF837
:102EB00088B1E344CDF810B09BF804C2E244CDF8E9
:102EC00054A0DDF810C09CF804C109EB4C09CDF802
:102ED0001890DDF810C09CF80490DDF838C0CCEBF9
:102EE000CC0B03EB8B03DDF808C04FF0150B0BFB8D
:102EF0000C33C5EB051C634406EB860C03EB4C035B
:102F000007EB470C03EB4C030EEB4E0C634408EB52
:102F1000030C0E9B03EBC30302EB8302029B4FF0F7
:102F20002A0B0BFB03222E2303FB0522BB1903EB09
:102F3000430302EB03122E2303FB0E220BFB08229A
:102F40000AEBCA0302EB8303029A05EB4505AA18B4
:102F500006EB460502EB450207EB870502EB45024F
:102F6000CEEB0E15AA18152505FB0822CAEBCA05DB
:102F700002EB8502ACF50035089E56B1089E691833
:102F8000079FC91B7143CE1101EB1661091207950A
:102F90000D46059E66B10D9E039FDDF814C005FB2E
:102FA0000CF507FB0655EE1105EB16652D12039582
:102FB000BDF85C607543012DACBF0835083DEE10CF
:102FC00005EB16752D11DFF87C60B542B8BF3546AC
:102FD00005DB47F6BD76B542A8BF47F6BC75189E1F
:102FE000F6896643169F27F81650019D00EBC50031
:102FF000641C009D2D8CAC42FFF6E3AE0098C0F837
:1030000000900098069C4460009882600098C3601D
:1030100000980161009807994161009803998161C6
:103020000098008C19B0BDE8F08F0000003002401D
:10303000C2A507F4CDB5E8B5640100201F85EB51AA
:10304000B81E19404480FFFF00215FF0FF32C368C3
:103050005A607FF08042C3685A6151F0004151F4D8
:103060000061C0688161704770B582B004000025BE
:103070000026002000900320FFF712F9E0680069A5
:103080000090761CB948864201D300201AE00098CF
:10309000C00F0028EFD00026009850F001000090EB
:1030A0000098E1680861E06800690090761CAF480C
:1030B000864202D20098C007F5D40320FFF7F0F84B
:1030C0002800C0B276BD70B404000020E578002D61
:1030D00013D1002500269BB2DB1C042593FBF5F5DC
:1030E000D2B214EB8202D2F8D020002603E00B68A3
:1030F0001360761C091DAE42F9D3C0B270BC704794
:1031000010B4002392B2D21C042392FBF3F2D0F845
:10311000D000002303E004680C605B1C091D93428F
:10312000F9D3080010BC704730B40A000023002116
:103130000024C4700124847040248480D2B2012A07
:103140000DD15FF0A0430122C27208220270042256
:1031500042704FF4A072C280022202720CE0D2B21E
:10316000002A09D1824B0022C2720C220270062270
:1031700042704FF4A062C280C36013F50062026126
:1031800000220EE013EB421414F5106410EB8205DC
:10319000AC6113EB421414F5306410EB82056C65DE
:1031A000521C4478A242EDD313F58062426113F5BC
:1031B0008862C0F8CC20002208E013EB421414F51A
:1031C000A06410EB8205C5F89040521C0478A2421E
:1031D000F3D300220AE04FF4805404FB023414F5C8
:1031E000805410EB8205C5F8D040521C0478A242EE
:1031F000F1D313F56062C0F80C210800C0B230BCF6
:10320000704770B504000025002000200026207AB9
:10321000012825D1E068806B30F48030617A002984
:1032200001D050F48010E16888630020E068C06835
:1032300030F0400030F4800030F4003030F40020F2
:10324000E168C8602000FFF70FFFE078012823D174
:10325000052060F3440656F02006E06886601BE017
:10326000E068C06850F04000E168C8602000FFF7E7
:10327000FBFE002050F4803050F4802050F40020F9
:1032800050F40010617A002901D050F48010E168F8
:1032900088631420FFF71AF8E078012808D1E06865
:1032A0008668052060F3440656F02006E0688660D4
:1032B0002800C0B270BD0021002252F00102C36894
:1032C0009B681A43C06882600800C0B27047002142
:1032D000002252F00102C3689B6833EA0202C06810
:1032E00082600800C0B2704710B582B0002400228E
:1032F00000230093009B53F020030093009B61F395
:103300008A1300930099C3681961C1680969009123
:10331000521C16498A4204D20099C1F34011002977
:10332000F3D10320FEF7BCFF2000C0B216BD10B5DC
:1033300082B00024002100220092009A52F0100274
:103340000092009AC3681A61C26812690092491C0F
:10335000064A914204D2009AC2F30012002AF3D125
:103360000320FEF79DFF2000C0B216BD410D0300F3
:103370000000044010B50024C268D26832F0005248
:1033800032F08042C9B2012902D152F0005204E069
:10339000C9B2002901D152F08042C068C260322017
:1033A000FEF794FF2000C0B210BDC068406910F065
:1033B0000100704780B5FFF7F8FF012801D0012018
:1033C00000E00020C0B202BD0021C1684969C068A8
:1033D000806901400800704702691268C9B261F350
:1033E0000102006902607047F8B504000025002161
:1033F00000200026002700200020D4F80C110860CF
:103400002069006830F4C05021690860E07A012822
:1034100029D103212000FFF7DFFF8020E168486207
:10342000802060F31F46802060F30F06E06886620C
:1034300016EB164060F30F074FF4807060F31F47E0
:10344000E068C0F8047117EB1740C0EA0707BFB285
:10345000E068C0F8087117EB1740C0EA0707BFB271
:10346000E068C0F80C7110212000FFF73DFF20003C
:10347000FFF75DFF00202169086100202169486194
:103480005FF0FF302169886100202169C861002058
:103490000FE0002114EB80029269116014EB8001AF
:1034A000896900220A6114EB80018969FF228A6020
:1034B000401C617888420CD214EB8001896909684C
:1034C000C90F0029E5D0002151F0804151F0006181
:1034D000E0E700200FE0002114EB8002526D116044
:1034E00014EB8001496D00220A6114EB8001496DE3
:1034F000FF228A60401C617888420CD214EB800164
:10350000496D0968C90F0029E5D0002151F08041BB
:1035100051F00061E0E7002050F4807021690969F2
:103520008143084321690861E07801280ED1002019
:1035300050F0010050F00200402161F38A0050F485
:103540008030402161F3594021690863200000F078
:1035500003F82800C0B2F2BD70B5040000250026B3
:103560000020E16888617FF08040E16848612000C8
:10357000FFF76AFDE078002801D156F0100656F4F6
:10358000006656F4805656F4005656F4802656F4DB
:10359000002656F00806E0688069B0433043E168D1
:1035A00088612800C0B270BD0021006980684008B1
:1035B00010F00300002805D0022807D004D3032808
:1035C00002D004E0032102E0022100E00121080012
:1035D000C0B2704710B40021002402699268836968
:1035E0001B68520812F00302002A04D0022A05D0F8
:1035F00001D3032A05D1DB0ADB0202E0032262F3D6
:103600000A038269136054F4807402695268A24309
:103610002243006942600800C0B210BC704770B419
:103620000A000021002500235478012C0AD11478C7
:1036300010EB8404A469012592F90060B54065F39C
:103640000F0309E0147810EB8404646D012592F9EE
:103650000060B54065F31F432568C5F3C036002EF2
:103660000DD1966866F30A05D67866F39345D2883D
:1036700062F3995555F0805555F40045256002696F
:10368000D2691A430069C2610800C0B270BC7047B9
:1036900070B40A000021002300245578012D0BD1BD
:1036A000157810EB8505AD69012692F9002016FA10
:1036B00002F262F30F040AE0157810EB85056D6DD8
:1036C000012692F9002016FA02F262F31F4433F445
:1036D00000432B600269D269A2430069C2610800FD
:1036E000C0B270BC704770B50024002300220023D4
:1036F0004A78012A61D10A7810EB82029269126835
:103700000B7810EB83039B691B694D69002D05D174
:10371000DB0CDB04012565F3DC4311E04D6965F347
:1037200012034D698E6875196D1E8E68B5FBF6F52E
:1037300065F3DC43CD78012D02D1012565F35E737D
:103740000D7810EB8505AD692B61C378012B06D18F
:103750000B7810EB83039B690D695D610EE0CB78FC
:10376000012B0BD04B69002B08D0012391F900509D
:10377000AB4005696D6B2B4305696B63CB78012BFF
:1037800008D103699B68DB0502D452F0005201E0C6
:1037900052F0805252F0806252F000420B7810EBEF
:1037A00083039B691A60CA78012A4BD14B699BB28B
:1037B0000A78C968FFF787FC44E00A7810EB8202B8
:1037C000526D12680B7810EB83035B6D1B694D69BA
:1037D000002D06D18D6865F31203012565F3DC43E6
:1037E0000EE04D698E6875196D1E8E68B5FBF6F595
:1037F00065F3DC43C3F3C9458E68754365F3120373
:103800000D7810EB85056D6D2B61C378012B05D10B
:103810000B7810EB83035B6D0D695D61CB78012B39
:1038200007D14B79002B02D052F0005201E052F048
:10383000805252F0806252F00042097810EB810011
:10384000406D02602000C0B270BDFCB400220024B4
:103850000023002300934B78012B48D185692B6806
:103860002E6900964E69002E09D1009EF609F601D8
:1038700000960126009F66F3D447009715E08E68F6
:103880004F69BE4207D28E684E618E68009F66F314
:103890000607009704E04E69009F66F3060700974D
:1038A0000126009F66F3D4470097009E2E61C678DC
:1038B000012E05D10E7810EB8606B6690F69776187
:1038C00053F0806353F000432B60C378002B4BD13F
:1038D0004B69002B48D0012391F9001013FA01F134
:1038E0000C430169496B2143006941633CE00B785B
:1038F00010EB83035B6D1B680C7810EB8404646D24
:10390000246900944C69002C0AD18C68009D64F3F2
:10391000060500950124009D64F3D44500950BE055
:103920008C684C618C68009D64F306050095012449
:10393000009D64F3D44500950C7810EB8404646D0D
:10394000009D2561C478012C05D10C7810EB84040E
:10395000646D0D69656153F0806353F0004309782D
:1039600010EB8100406D03601000C0B2F6BC7047E0
:10397000002200234B78012B0DD1097810EB810038
:1039800080690368D90F002901D053F0804353F4B4
:103990000013036007E0097810EB8100406D0368B5
:1039A00053F4001303601000C0B2704710B400223B
:1039B00000234B78012B04D10B7810EB8300806936
:1039C00003E00B7810EB8300406D036833F40013C1
:1039D000CC78032C02D0C978022901D153F080534E
:1039E00003601000C0B210BC7047016989690069AA
:1039F000C0690140080C7047C9B210EB8101496DE4
:103A00008968006940690140080070470169896957
:103A10000069C069014088B2704782B000210091FE
:103A2000009951F0404100910121009A61F3D44284
:103A300000921821009A61F3060200920099426DEB
:103A40001161C17801290CD1002100F2CC51426DE5
:103A50005161416D096851F000415FF08021406D76
:103A6000016002B07047817A00290CD00169896831
:103A7000C90708D5D0F80C1131F0020149084900F6
:103A8000D0F80C010160704740EA010C5FEA4C0C71
:103A900007D0884205D14FEA400C1CF1807F98BFC7
:103AA0008042704700EE100A00EE901A20EE200AC5
:103AB00010EE100A704700005FF0FF0C1CEAD051B6
:103AC00014BF614506E0C110400721F0E04101F15B
:103AD0006051704779B900F0004100020AD0B0FA95
:103AE00080FC00FA0CF001F16051A1EB0C5101EBEC
:103AF000D0214005704741020CBF40F4E0016FF057
:103B00000001002070470000010040F10980F446E8
:103B1000404200F005F851F000416047010000BF4D
:103B200009D0B0FA80F18840C91CC1F5846109054B
:103B300001EBD021400570472DE9F04140F2FF75BF
:103B400081EA030C0CF0004C15EA11541DBF15EA74
:103B50001357AC42AF42E9E0BC41C1F31301C3F3D8
:103B60001303801A994143F4801304D2641E400069
:103B7000494180185941C90241EA5051B1FBF3F65D
:103B800003FB1611A2FB0675D7EBC020A94102D298
:103B9000761E80185941C90241EA5051B1FBF3FE2B
:103BA00003FB1E11A2FB0E75D7EBC020A94103D267
:103BB000AEF1010E80185941890241EA9051760513
:103BC00046EA8E2EB1FBF3F603FB1611A2FB067537
:103BD000D7EB8020A94102D2761E80185941C90234
:103BE00041EA50514EEA060EB1FBF3F603FB161103
:103BF000A2FB0675D7EBC020A94102D2761E801821
:103C00005941C90241EA5051B1FBF3F703FB1711C7
:103C1000A2FB0735D3EBC020A94167F100070CBF19
:103C2000004247F0010766F3D5274FEA1E31B80876
:103C300014F5806414DDBD0775F1004250EB0E50A1
:103C400051EB045111F5801F5CBF41EA0C01BDE846
:103C5000F0814CF07F6141F0E0410020BDE8F0814F
:103C6000BD076D0840EA0E5041F48011D4F1010403
:103C7000B4F120060ADAC4F120060200E04001FA9D
:103C800006F3E1401843B24015430EE0342C14DC37
:103C9000C6F1200445EA40056D0820FA06F21543F6
:103CA00021FA06F0A1400D43002175F1004250F1C8
:103CB000000051EB0C01BDE8F08100205FEA0C012F
:103CC000BDE8F081CFB992185B41B3FA83F704BF26
:103CD000B2FA82F6BF190B3FB7F120062FBF02FAE6
:103CE00006F3BB40C7F1200622FA06F638BF33437D
:103CF000BA401CB1E419641E2FE77F4231F0004145
:103D0000B1FA81F404BFB0FA80F6A4190B3CB4F107
:103D100020062FBF00FA06F1A140C4F1200620FAC8
:103D200006F638BF3143A0403C1B16E7AC421ABF31
:103D300005EA1357AF4214E050EA41061CBF52EAAD
:103D40004306BFE750EA4107304661461CBF41EADF
:103D50000551BDE8F08152EA430C08BFC143BDE8FC
:103D6000F08100204FF4001616EB410F98BF16EBC0
:103D7000430F08BF16EB410F24BFC14305E016EB0C
:103D8000430F0CBF61464CEA0551BDE8F0810000CD
:103D9000F0B44FF0004591EA030C44BF6B4000F0D3
:103DA00063B900BF841A71EB030603D2001BB14153
:103DB000121973414FF4001C1CEB410F34BF7CEB14
:103DC000430443E00C0DA4EB1356352E50DC45EABA
:103DD000C323DB0A45EAC121C912B6F120050DDD76
:103DE00063FA05F6EB4086EA0305124218BF45F078
:103DF0000105C01851F100010CD213E062FA06F57A
:103E0000F2405540F3415A40B340F3405A408018C5
:103E1000594107D349085FEA30005FEA350528BFFA
:103E200045F0010501F58011420875F1004250F19D
:103E3000000041EB0451F0BC4FF4001C1CEB410F9F
:103E400038BF70470020090D090570471CEB410F72
:103E500010D252EA43060BD0BCEB410F05D80C0D33
:103E6000AB43661E342EB5DD02E0AB4380185941EA
:103E7000F0BC7047F0BC7047F446400D40EAC120EA
:103E8000490006D200F00EF8004248BF6FF0004033
:103E9000604700F007F84FF0004188428CBF0846A9
:103EA0004042604740F00040490DA1F58061491C47
:103EB00005D4D1F11F0154BFC840C01770474FF05F
:103EC00000007047B0B581EA030C0CF0004C40F2E2
:103ED000FF7515EA11541DBF15EA1357AC42AF42E6
:103EE00039E0E41923EA455343F48013C90241F051
:103EF000004141EA505EC7021100A7FB0202002800
:103F00004FF00000EEFB01204FF00001E3FB072122
:103F100018BF42F00102401800214941E3FB0E01A5
:103F2000A4F580640F0302D252004041494154F18C
:103F300001046CDD470872F1004250F1000051EBC2
:103F40000451A1F580115CBF41EA0C01B0BD4CEAFF
:103F500005510020B0BD05EA1357AC4214BFAF4273
:103F600041E050EA410E1CBF52EA430E02E06146B6
:103F70000020B0BD24423C441BD15FEA070EF6D0BE
:103F8000090302BF01460020AEF1140EB1FA81F719
:103F9000AEEB070401FA07FE0C37C7F1200100FA67
:103FA00007F7C8404EEA000E23EA455343F4801356
:103FB000A2E733F00043B3FA83F704BFB2FA82FEFC
:103FC00077440B3FE41BB7F1200E2FBF02FA0EF32C
:103FD000BB40C7F1200E22FA0EFE38BF43EA0E03A3
:103FE000BA40641C82E750EA410E14BF52EA430E05
:103FF0006FF000014FF4001717EB430F8ABF19460B
:1040000017EB410FB5E74CEA05510020B0BDD4F1E4
:104010000104B4F120070FDAC4F12007520828BFC9
:1040200042F0010210FA07F501FA07F7E1BF2A434F
:10403000E0403843E1400FE0352C98DCC7F1200424
:1040400052EA400220FA07F218BF42F0010231FAA8
:1040500007F0A1400A43002172F1004250F1000034
:1040600051EB0C01B0BD0000841A71EB030604D2C1
:104070006E40001BB141121973414FF4001C1CEB40
:10408000410F34BF7CEB430684E00C0DA4EB1356C8
:10409000362E7DDC012E43DC45EAC32343EA52532E
:1040A00012BFD20292025B08240545EAC12141EA0F
:1040B0005051D2EBC020994125D407D1B0FA80F6F7
:1040C00010FA06F164D00020203608E0B1FA81F63B
:1040D000B140C6F1200220FA02F21143B0404FEA8B
:1040E000F474B4EB465434F001064FEA74040AD871
:1040F000D6F50016760D04F00044F04061FA06F2A1
:104100005040F1404840C00A40EA415021F000418F
:1041100028BF5FEA500550F1000044EBD12137E0A1
:1041200045EAC323DB0A45EAC121C90AB6F12005E5
:104130000EDD42EA0242120CC5F1200603FA06F631
:10414000EB4042EA06056D42984161F100010DE045
:1041500062FA06F5F240554063FA06FC82EA0C0268
:10416000F3405A406D42904161EB030111F4801F0E
:1041700005D1641E620502D06D004041494121F421
:104180008011430875F1004350F1000041EB0451E8
:10419000F0BC70471CEB410F15D223F0004352EAEC
:1041A00043060BD04FEA4C0CBCEB410F04D80C0D6E
:1041B000661E342EB7DDEBE7801A994150EA4106BE
:1041C00008BF0021E4E708BF1CEB430F28BF6FF0D6
:1041D0000001DDE770B5040000262000FFF7EAF8D3
:1041E000002842D02000FFF7EFF80500C5F3C040DB
:1041F000002803D0200000F0D7F80643C5F3804024
:10420000002803D0200000F095F80643E80F0028AE
:1042100003D0200000F02BF80643C5F3C02000288F
:1042200003D0200000F047F80643C5F3C000002883
:1042300003D0200000F01AF90643C5F3001000284F
:1042400003D0200000F020F90643C5F30030002819
:1042500003D0200000F0BCF90643C5F3403000282D
:1042600003D0200000F00CFA0643300070BD10B5FA
:104270000400A07A002808D0D4F80C0130F0020025
:1042800040084000D4F80C110860002050F00100F4
:104290002169496831EA0000216948602000DFF89F
:1042A000D813096889698847002050F00040E16808
:1042B0004861012010BD10B582B0040000208DF8C7
:1042C000000094F812018DF800002000DFF8A81318
:1042D00009684969884720698168002050F40060B6
:1042E000E2685061A07A002822D0C80720D594F84F
:1042F000150101281CD19DF80000032818D10020C9
:1043000050F00100D4F80C1109680143D4F80C21D5
:10431000116050F00200D4F80C1109680843D4F879
:104320000C110860D548006850F00600D3490860B9
:10433000012016BD70B50400002500202000FFF705
:1043400065FB06000CE02900200000F0E9F80020E1
:1043500050F0800014EB8501896988606D1C760837
:10436000002E1FD0F007F9D52900C9B2200000F0B7
:10437000ACF9C007E7D50120A8402169496B31EAB3
:10438000000021694863002050F0010014EB850112
:10439000896988602900C9B22000B74A126852684A
:1043A0009047DBE7012070BDF8B504000025002729
:1043B0002000FFF71AFB060054E0F00750D5290053
:1043C000C9B22000FFF718FB0700F8072DD500271A
:1043D00057F0010714EB8500406D8760E0780128F5
:1043E00010D114EB8500406D0069282101FB0541C7
:1043F000D1F87C134003400B081A282101FB05412A
:10440000C1F88C032900C9B220009B4A12681268C7
:104410009047E078012808D1002D06D194F81101C9
:10442000052802D12000FFF7F8FAC7F34000002862
:1044300006D0002757F0020714EB8500406D876017
:10444000C7F3C00000280BD020008B490968896899
:104450008847002757F0080714EB8500406D8760F8
:104460006D1C7608002EA8D10120F2BD10B5040005
:10447000200081490968C9688847002050F0080079
:10448000E1684861012010BDF8B50400002555F031
:104490001005E0688069A843E1688861E068066A01
:1044A00016F00F00282101FB004010F55D77700C1D
:1044B00010F00F00012808D0022807D003281AD0D6
:1044C000042819D0062818D023E022E0300940053E
:1044D00010D0C6F30A1292B2F9682000FEF710FE5F
:1044E000F868C6F30A110818F860B869C6F30A112B
:1044F0000818B8610DE00CE00BE0082204F2CC5182
:104500002000FEF7FDFDB869C6F30A110818B8616E
:10451000FFE7E06880692843E16888610120F2BD17
:104520002DE9F04104000D005FF000080020282074
:1045300000FB054010F58E767069B169B0EB01089B
:10454000B068404501D2D6F8088018F1030087080A
:1045500014EB85008069806903E014EB85008069B5
:10456000806980B2874230D2B069716988422CD2AA
:104570007069002829D07069B169B0EB0108B06892
:10458000404501D2D6F8088018F103008708434659
:104590009BB22A00D2B2F1682000FEF794FDF068C9
:1045A00018EB0000F060B06918EB0000B061B06972
:1045B00071698842D1D3012096F9001088402169A1
:1045C000496B31EA0000216948630120BDE8F081B0
:1045D000F8B5040000210025002600270020002057
:1045E00051F0010120694068884321694860002139
:1045F0002000FEF779FE00200AE014EB80018969B3
:10460000FF228A6014EB8001496DFF228A60401C02
:1046100061788842F1D35FF0FF3021698861012021
:1046200060F30F05012060F31F452069C56156F056
:10463000080656F0010656F002062069466157F05A
:10464000010757F0080757F0020720690761206942
:10465000006830F4FE60216908602000FFF7DDF992
:10466000002050F48050E168486120000249096848
:10467000096988470120F2BD1001002010ED00E01B
:1046800038B504002000FEF7A5FFE068C5682000EB
:10469000FEF78AFF032808D10020A0704FF40070B5
:1046A000A080092060F38D2506E00120A070402045
:1046B000A080052060F38D25E068C560002050F4DF
:1046C0000050E1684861012032BD02691269036946
:1046D0005B6BCB4013F0010352EAC312C9B210EB7B
:1046E00081008069806810407047000080B5012318
:1046F00020228121FDF73CFE002002BD80B58121F2
:10470000FDF763FE002002BD10B504000B7813F026
:104710006003DBB2002B13D0202B51D14878012845
:1047200005D0812807D1200000F07FF848E0200064
:1047300000F081F8FAE72000FEF7E8F9022040E0F7
:104740004B78062B04D00A2B15D00B2B19D037E051
:104750004B889BB21B0A9BB2212B06D14248CA88C8
:104760000A2A01DB092200E0CA8892B20100200077
:10477000FEF707FA24E001223C492000FEF701FA87
:104780001EE08878022818DA8878384908603748A7
:104790000068012806D10120354908600220FDF794
:1047A0005DF90DE00020324908600220FDF760F954
:1047B00081212000FDF7ABFE02E02000FEF7A6F904
:1047C000002010BD80B50220FDF75CF9002002BD7D
:1047D00010B5040081212000FDF799FE25480078DE
:1047E000012806D12023244A81212000FDF730FE34
:1047F00005E02023214A81212000FDF729FE032026
:10480000FDF740F9002010BD0020704780B5184921
:104810000968012907D1202300228121FDF718FE14
:10482000022013490860002002BD80B5CA881449DF
:10483000FEF7A7F901BD10B50C00E18800290ED0E4
:10484000E2880F49FEF7BCF901200E490870E088A4
:104850000D490860A08880B2000A0C49087010BD9C
:104860006D2008800A48704786000020341200201E
:104870003012002068040020FC110020DC11002010
:104880002C110020541200202C1200205512002060
:1048900074000020002070470020704780B54E480B
:1048A000006850F001004C49086000204B49086046
:1048B000494800684A4908404749086049484A4908
:1048C00008604548006830F48020434908600020B3
:1048D0004649086000F005F85FF000604449086050
:1048E00001BD82B000200190002000903A4800688D
:1048F00050F48030384908603748006810F40030C0
:1049000000900198401C01900098002803D1019864
:10491000B0F5A06FF0D130480068800302D50120C7
:10492000009001E000200090009801283ED131481D
:10493000006850F080502F4908602F48006850F4FC
:1049400080402D49086025480068244908602348B4
:10495000006850F40040214908602048006850F485
:10496000A0501E49086025481F4908601A48006881
:1049700050F0807018490860174800688001FBD526
:1049800040F205601E4908601448006880088000F5
:10499000124908601148006850F002000F49086091
:1049A0000E48006810F00C000828F9D10B48006888
:1049B00030F40000094908601248134908600648AD
:1049C000006850F0806004490860034800680001F6
:1049D000FBD502B0704700000038024008380240A2
:1049E000FFFFF6FE10300024043802400C3802406D
:1049F00008ED00E0403802400070004008544007D5
:104A0000003C024080400030843802401220088080
:104A100028487047042008802748704780B5C0B2F6
:104A2000002805D10A0025492548FEF77DF804E055
:104A30000A0022492348FEF777F8204802BD80B5D6
:104A40000A001E492048FEF76FF81C4802BD80B5D9
:104A5000C0B2002805D10A0018491C48FEF764F8C6
:104A600004E00A0015491A48FEF75EF8134802BD33
:104A700080B5C0B2002805D10A0010491548FEF7DC
:104A800053F804E00A000D491248FEF74DF80B48B0
:104A900002BD80B5C0B2002805D10A0007490E4802
:104AA000FEF742F804E00A0004490B48FEF73CF820
:104AB000024802BD3001002044010020640E0020A5
:104AC000A84B0008CC4B0008784C00089C4C000810
:104AD000AC4C0008BC4C0008CC4C00087047FEE70A
:104AE000FEE7FEE7FEE7704770477047704780B506
:104AF0000120104908700120FDF75BFB01BD80B566
:104B00000D48807A00280AD00C48006830F0060072
:104B10000A490860FFF7C2FE0748FEF7A4FF5FF4EA
:104B20008020FDF746FB01BD80B50348FFF752FB2F
:104B300001BD0000521200207008002010ED00E0BE
:104B400019E050F8041BCB0744BFA9F10103591821
:104B5000121F0023042A41F8043BF9D25FEA827C49
:104B60000B4604D54FF0000CA1F800C09B1CD107E8
:104B700044BF0021197050F8042B002AE1D170477E
:104B800010B5074979441831064C7C44163404E0CA
:104B90000A68081D511888470146A142F8D110BD86
:104BA000740000009000000053544D3332204155F2
:104BB00044494F2053747265616D696E6720696E58
:104BC000204853204D6F64650000000053544D335E
:104BD0003220415544494F2053747265616D696EAE
:104BE0006720696E204653204D6F64650000000009
:104BF0004EF68851CEF20001086840F4700008605B
:104C0000BFF34F8FBFF36F8F4FF00070E1EE100ACC
:104C1000704700002DFFFFFFE8090000700800202A
:104C20000000000053C7FFFF4802000070060000AC
:104C30000000002000F00BF8002801D0FFF7A0FFD3
:104C40000020C046C046FCF751FA00F002F80120EF
:104C5000704700F001B800000746384600F002F83F
:104C6000FBE7000080B5C046C046024A110018208C
:104C7000ABBEFBE72600020053544D6963726F65BB
:104C80006C656374726F6E696373000008000000E6
:104C9000080000000800000008000000303030303C
:104CA00030303030303334460000000030303030A7
:104CB0003030303030333445000000004155444935
:104CC0004F20436F6E6669670000000041554449FC
:104CD0004F20496E746572666163650001488047C4
:104CE000014800479D480008ED4C0008C046C046FA
:104CF000FFF77EFFFFF79EFF0010002000400080BE
:104D000001000000FFF7EABEFFF7E9BEFFF7E8BECB
:104D1000FFF7E7BEFFF7E6BEFFF7E5BEFFF7E4BE2D
:104D2000FFF7E3BEFFF7E2BEFFF7FEBFFFF7FEBFF0
:104D3000FFF7FEBFFFF7FEBFFFF7FEBFFFF7FEBFA7
:104D4000FFF7D5BEFFF7FEBFFFF7FEBFFFF7FEBFC1
:104D5000FFF7FEBFFBF702BBFFF7FEBFFFF7FEBF8B
:104D6000FDF768B8FFF7FEBFFFF7FEBFFFF7FEBF16
:104D7000FFF7FEBFFFF7FEBFFFF7FEBFFFF7FEBF67
:104D8000FFF7FEBFFFF7FEBFFFF7FEBFFFF7FEBF57
:104D9000FFF7FEBFFFF7FEBFFFF7FEBFFFF7FEBF47
:104DA000FFF7FEBFFFF7FEBFFFF7FEBFFFF7FEBF37
:104DB000FFF7FEBFFFF7FEBFFFF7FEBFFFF7FEBF27
:104DC000FFF7FEBFFFF7FEBFFFF7FEBFFFF7FEBF17
:104DD000FFF795BEFFF7FEBFFFF7FEBFFFF7FEBF71
:104DE000FFF7FEBFFBF7B6BAFFF7FEBFFFF7FEBF48
:104DF000FFF7FEBFFBF7B6BAFFF7FEBFFFF7FEBF38
:104E0000FFF7FEBFFFF7FEBFFFF7FEBFFFF7FEBFD6
:104E1000FFF7FEBFFFF7FEBFFFF7FEBFFFF7FEBFC6
:104E2000FFF7FEBFFFF7FEBFFFF7FEBFFFF7FEBFB6
:104E3000FFF7FEBFFFF778BEFFF7FEBFFFF7FEBF2D
:104E4000FFF7FEBFFFF7FEBFFFF7FEBFFFF7FEBF96
:104E5000FFF7FEBFFFF7FEBFFFF7FEBFFFF7FEBF86
:104E6000FFF7FEBFFFF7FEBFFFF7FEBFFFF7FEBF76
:104E7000B002000C024004200B000240FFFF0000C3
:104E800000C01200010001300A2000B86002400C8E
:104E90003C00402F000122280720020102030404E5
:104EA000100B06070809007A030AED460008FD0406
:104EB0002002094700082012C50812D10410030976
:104EC0004800080D04129904129504126104100997
:104ED00009026D00020100803209042B12016710E3
:104EE0000409240100011E0B40040C2402010102EC
:104EF0007A10010924030D110C1309041011162155
:104F0000091101110920010724011B320B2E200871
:104F10001001803E00090581012038D002072501DB
:104F2000000113051C8011041007B31B0008D31DDA
:104F30000008690412B7041299044004171E0008FF
:104F4000251EB4210112E4F110030D4A00081504D6
:104F5000123F04121D04124F041271041293041024
:104F600001120100801004004083043057C5130271
:104F7000036E1007040309046B1500086D04126F1B
:104F8000041271041273041275045377155C2041E6
:104F90001C15310F2B24400A261F3B19352E4A06BB
:104FA000221B3715312A46102C25411F3B34500354
:104FB0001F1834122E27430D29223E1C38314D096B
:104FC000251E3A18342D49132F2844223E37530109
:104FD0001D16322C201A0B27203C1A362F4B072384
:104FE0001C3816322B47112D2642203C3551042007
:104FF00019352C60060E2A233F1D39324E68F00603
:105000007014302945233F385480600D121527173E
:10501000292C3E182A2D3F2F4144560820063042A5
:10502000455747595C6E1C20022E404355146002C0
:1050300046585B6D08211C60125E70738515272A27
:105040003C2C3E41532D3F42544456596B08200698
:1050500045575A6C5C6E71831C20024355586A1484
:1050600060025B6D708208211C60127385889A1241
:10507000242739293B3E502A3C3F5141535668086A
:10508000200642545769596B6E801C2002405255CD
:1050900067146002586A6D7F08211C601270828557
:1050A0009727393C4E3E5053653F51546656686BC6
:1050B0007D08200657696C7E6E8083951C20025502
:1050C000676A7C1460026D7F829408211C28028527
:1050D000979AACE8100903030404060607070909B8
:1050E0000A01101B0B0B0D0D0E0E101011111313D6
:1050F00014140F0F1010121213131515161618187A
:105100001901600C1A1A1C1C1D1D1F1F20202222B1
:1051100023231860061B1B1C1C1E1E1F1F181015A6
:105120002525262628282929242425252727282817
:105130002A2A2B2B2D2D2E01A00C2F2F313132326C
:1051400034343535373738384C2134A012262627E9
:105150002729292A2A2C2C2D2D2F2F30302B2B2C90
:105160002C34A00E35353636383839393B3B3C3C8B
:105170003E3E3F3F4C10013A3A3B01411810154169
:1051800041424244444545404041414343444446F2
:1051900046474749494A01000D4B4B4D4D4E4E5035
:0851A0005051515353545401C6
:0400000508004CEDB6
:00000001FF
