:020000040800F2
:1000000058120020E94C00082D4B00082F4B000827
:10001000314B0008334B0008354B0008000000004E
:10002000000000000000000000000000374B000846
:10003000394B0008000000003B4B00083D4B000816
:10004000354D0008394D00083D4D0008414D000870
:10005000454D0008494D00083F4B0008514D000830
:10006000554D0008594D00085D4D00085703000824
:10007000654D0008694D0008891E0008714D000893
:10008000754D0008794D00087D4D0008814D000830
:10009000854D0008894D00088D4D0008914D0008E0
:1000A000954D0008994D00089D4D0008A14D000890
:1000B000A54D0008A94D0008AD4D0008B14D000840
:1000C000B54D0008B94D0008BD4D0008C14D0008F0
:1000D000C54D0008C94D0008CD4D0008D14D0008A0
:1000E000D54D0008D94D00084F4B0008E14D0008E0
:1000F000E54D0008E94D0008ED4D00084F030008EC
:10010000F54D0008F94D0008FD4D00085F0300089B
:10011000054E0008094E00080D4E0008114E00085B
:10012000154E0008194E00081D4E0008214E00080B
:10013000254E0008294E00082D4E0008314E0008BB
:10014000354E0008394E00083D4E0008794B000836
:10015000454E0008494E00084D4E0008514E00081B
:10016000554E0008594E00085D4E0008614E0008CB
:10017000654E0008694E00086D4E0008714E00087B
:10018000754E0008794E000870B504000D00160089
:10019000300000F0A5FDEDB2652D01D3642106E02D
:1001A000EDB2FF2000FB05F0642190FBF1F132007D
:1001B000C9B2200080B200F0F5F8002801D001207B
:1001C00002E000F057FC002070BD38B504000D00BF
:1001D0006808DFF8C019086000F055F9DFF8B409C5
:1001E00000684008B0F5803F04D2DFF8A809006835
:1001F000410801E04FF6FF71200000F0CDFCDFF870
:1002000094090068B0F5803F03D2DFF888090068E0
:1002100001E04FF6FF70D0EB5500DFF8F8190860E9
:10022000DFF870090068B0F5803F03D2DFF8640999
:10023000006801E04FF6FF7014EB4000DFF89C1AF5
:100240000860002032BD80B5DFF844090168DFF89E
:100250000808006800F0CBFE002877D0DFF8B4096A
:10026000006800285ED0DFF8F007006800F0B5FEF7
:100270000028F8D1DFF818090168DFF8DC0700680A
:1002800000F0CEFEDFF89009DFF8501A09688160AF
:10029000DFF880090068B0F5803F03D2DFF8740909
:1002A000006801E04FF6FF70DFF86C190861DFF8B5
:1002B0006819DFF8A407006800F03DFE0121DFF8AF
:1002C0009807006800F062FEDFF848090068B0F5A2
:1002D000803F03D2DFF83C09006801E04FF6FF7071
:1002E000DFF8F819096811EB4000DFF8F019086031
:1002F000DFF820090068B0F5803F03D2DFF8140969
:10030000006801E04FF6FF70DFF808190968081A65
:10031000DFF8001908600121DFF83C07006800F0F1
:1003200035FE13E00021DFF83007006800F02EFEF4
:10033000DFF85C080168DFF82007006800F070FE55
:100340000021DFF89809006800F0FEFE01BD80B5CD
:10035000FFF779FF01BD80B5FFF775FF01BD80B5DF
:100360000221DFF8200A01F00FF8002819D0DFF889
:10037000E406006802280CD100F07AFC010089B282
:10038000042001F03AF80021DFF8F80900F0D8FF66
:1003900007E000F06DFC010089B2DFF8E80900F029
:1003A000CFFF01BD70B50E001400002500F0B8FAB3
:1003B00000F090F800F04BFA0121022000F09CF8C8
:1003C0004519AF21042000F097F84519DFF8B80966
:1003D000AF2101708121052000F08EF8451904211C
:1003E000062000F089F845193000C0B200F04DF841
:1003F000DFF898090068022818D10121082000F0D0
:100400007BF845190121092000F076F84519C02133
:100410000E2000F071F845190021142000F06CF84E
:1004200045190021152000F067F845199E2102208A
:1004300000F062F8451900210A2000F05DF8451926
:10044000DFF848090068022804D004210E2000F0DB
:1004500053F845190021272000F04EF845190F21C7
:100460001F2000F049F845190A211A2000F044F82D
:1004700045190A211B2000F03FF84519200000F023
:1004800012FA280070BD0020704738B5040000251E
:10049000E4B2E72C0ED314F11901C9B2202000F008
:1004A0002BF8451914F11901C9B2212000F024F8E4
:1004B00045190DE014F11901C9B2202000F01CF813
:1004C000451914F11901C9B2212000F015F8451998
:1004D000280032BD80B500221021DFF8B40800F0FA
:1004E000F0FF44F6FF7000F0B9FA01221021DFF8A6
:1004F000A00800F0E6FF01BD38B504000D000020A3
:10050000DFF890185FF496120A605FF40031DFF8AC
:10051000880801F02EF900280BD0DFF87808006871
:10052000411EDFF8702811600028EED100F0A0FA1B
:1005300089E00121DFF8600801F0C4F8DFF8540811
:100540004FF480510160DFF85418DFF84C0801F0D7
:10055000F6F800280BD1DFF83C080068411EDFF8F0
:10056000342811600028EED100F082FA6BE00022FE
:100570009421DFF8240801F0C3F8DFF818084FF4DD
:1005800080510160DFF81818DFF80C0801F0D7F887
:1005900000280BD1DFF8FC070068411EDFF8F427C4
:1005A00011600028EED100F063FA4CE02100C9B2DE
:1005B000DFF8E40701F0BDF8DFF8D8074FF4805109
:1005C0000160DFF8E017DFF8D00701F0B8F8002885
:1005D0000BD1DFF8C0070068411EDFF8B8271160B3
:1005E0000028EED100F044FA2DE02900C9B2DFF86E
:1005F000A80701F09EF8DFF89C075FF496110160F0
:100600000AE0DFF890070068411EDFF888271160D4
:10061000002801D100F02CFADFF88C17DFF87807FA
:1006200001F0A7F80028ECD00121DFF86C0701F0F9
:1006300058F82000C0B200F007F8EDB2A84201D18E
:10064000002000E0012032BD38B504000025DFF8AD
:1006500044075FF4961101605FF40031DFF838075A
:1006600001F087F800280BD0DFF828070068411E4A
:10067000DFF8202711600028EED100F0F9F9E5E05D
:100680000121DFF8140701F01DF8DFF808074FF427
:1006900080510160DFF80417DFF8FC0601F04FF825
:1006A00000280BD1DFF8EC060068411EDFF8E426D5
:1006B00011600028EED100F0DBF9C7E000229421A0
:1006C000DFF8D40601F01CF8DFF8C8064FF48051BB
:1006D0000160DFF8CC16DFF8C00601F030F8002822
:1006E0000BD1DFF8B0060068411EDFF8A8261160C4
:1006F0000028EED100F0BCF9A8E02100C9B2DFF873
:10070000980601F016F8DFF88C064FF4805101606E
:10071000DFF89416DFF8800601F02BF800280BD1E3
:10072000DFF870060068411EDFF8682611600028B7
:10073000EED100F09DF989E00121DFF85C0600F0C0
:10074000C1FFDFF850064FF480510160DFF84C160E
:10075000DFF8440600F0F3FF00280BD1DFF8340681
:100760000068411EDFF82C2611600028EED100F051
:100770007FF96BE001229421DFF81C0600F0C0FF36
:10078000DFF810064FF480510160DFF82016DFF823
:10079000080600F0EEFF00280BD1DFF8F80500682E
:1007A000411EDFF8F02511600028EED100F060F95D
:1007B0004CE00021DFF8E00500F0ADFFDFF8F005C8
:1007C00004880121DFF8D00500F08BFFDFF8C405B5
:1007D0004FF480510160DFF8DC15DFF8BC0500F054
:1007E000C8FF00280BD1DFF8AC050068411EDFF818
:1007F000A42511600028EED100F03AF926E0DFF8D8
:10080000980500F099FF0500DFF888054FF4805146
:100810000160DFF88405008880050BD5DFF87405DA
:100820000068411EDFF86C2511600028F1D100F04E
:100830001FF90BE00121DFF8600500F06CFFDFF825
:100840007815DFF8540500F0B5FF280032BD00B57B
:1008500085B001215FF4001001F061F8DFF8380580
:1008600000F076FE0020ADF804004BF6FF70ADF806
:1008700006003320ADF808004FF48060ADF80A00A0
:100880004FF48040ADF80C00DFF8300500900121F6
:10089000DFF8040500F008FF00A9DFF8FC0400F011
:1008A00082FE05B000BD10B588B0040001214FF4F0
:1008B000004001F034F8DFF8CC0400F079FC029439
:1008C0000020ADF802000020ADF804000020ADF8D3
:1008D0000C004FF40070ADF800004FF40070ADF85C
:1008E000060000A9DFF89C0400F08DFCDFF89C04F2
:1008F0000068022812D101215FF0005001F00FF8CA
:1009000000200490002005900020079004A90020FA
:1009100000F044FD0121002000F059FD08B010BD99
:1009200000B583B00121082000F0D9FF102000900D
:1009300001208DF8040001208DF8050000208DF8BD
:10094000060000208DF8070000A9DFF8440400F03D
:1009500065FD0121072000F0C2FF4FF410700090E8
:1009600002208DF8040002208DF8050001208DF88A
:10097000060000208DF8070000A9DFF8440400F00D
:100980004DFD04220621DFF8380400F0A1FD042209
:100990000921DFF82C0400F09BFD4FF4A0500090DB
:1009A00002208DF8040002208DF8050000208DF84B
:1009B000060000208DF8070000A9DFF8080400F009
:1009C0002DFD06220421DFF8000400F081FD06223F
:1009D0000A21DFF8F00300F07BFD1E4800680228C2
:1009E0000DD01020009000A9DFF8DC0300F016FD08
:1009F00006220C21DFF8CC0300F06AFD10E0012193
:100A0000012000F06CFF1020009003208DF80400FE
:100A100000208DF8070000A9DFF8AC0300F0FEFC11
:100A20008020009002208DF8040002208DF805003F
:100A300000208DF8060000208DF8070000A9DFF8DF
:100A4000840300F0EBFC06220721DFF8780300F0B6
:100A50003FFD07BD440400204C04002001B402E027
:100A60000098401E009000980028F9D101B070470E
:100A7000FEE7000000B583B000BFDFF81003006898
:100A8000012864D10121DFF84403006800F027FF4A
:100A90000021DFF83C03006800F078FADFF830034B
:100AA000006800F0ADF95C48DFF8281309680160C0
:100AB0005948DFF8241309684160574800218160D4
:100AC00055484021C16054484FF6FE7101615248BB
:100AD0000021416150484FF4806181614E484FF4DC
:100AE0000061C1614C484FF4005101624A48002145
:100AF000416249485FF40031816247480021C16288
:100B000045480021016344480021416342480021D7
:100B100081634149DFF8B802006800F00CFA012255
:100B20001021DFF8AC02006800F08AFADFF8AC02AE
:100B300000688DF804000A208DF805000A208DF861
:100B4000060001208DF8070001A800F048FF8F483B
:100B50000068012805D1012202218A4800F0F2FB39
:100B600015E000F05BF801227121864800F0F6FBE9
:100B700033208DF800000A208DF801000A208DF83E
:100B8000020001208DF8030000A800F028FF07BD37
:100B9000580400203C04002038B505000C009048A3
:100BA00001688B48006800F03BFA7848006801282B
:100BB0000FD11948856018486100016116498448C1
:100BC000006800F0B8F901218148006800F0DEF902
:100BD00017E084480021018083480560200080B22E
:100BE0004000824908800C4885600B4804610A492E
:100BF0007748006800F09FF901217548006800F00F
:100C0000C5F97B480088400503D401215D4800F008
:100C100089FB31BD180E0020680D002000B587B09B
:100C20000121744800F05BFE01215FF0005000F0EC
:100C300076FE1020009003208DF8040000208DF82F
:100C4000070000A9604800F0E9FB002002900020A6
:100C50000390022005900020049002A9002000F0DB
:100C60009DFB0121002000F0B2FB07B000BD000099
:100C70005E4800885B49098888422CD3594800881F
:100C8000401C5849088041480068022816D156483F
:100C9000006854490978C90709D453490968891C6F
:100CA000514A116050490968891C4F4A1160B0F9D6
:100CB0000000B0F500405049088009E04A4800684B
:100CC00049490968891C484A11604B4900880880D5
:100CD0004948008801E04848008870471C0E002001
:100CE00010B50400002000F084FDB4F5FA5F19D0BF
:100CF00042F61130844220D0B4F57A5F18D045F224
:100D0000226084422FD0B4F5FA4F1BD04AF64440FB
:100D100084422ED04BF68030844218D0374884422B
:100D20001BD02BE005214FF4807000F05BFD25E027
:100D30000221D52000F056FD20E00221D52000F050
:100D400051FD1BE00221D52000F04CFD16E00321EF
:100D50004FF4817000F046FD10E002214FF4AC70BA
:100D600000F040FD0AE0042140F2AD1000F03AFD31
:100D700004E0022140F20F1000F034FD012000F0E9
:100D800038FD10BD003C00404F0E00204404002000
:100D9000000C024040040020005400400100030009
:100DA000820007008000070004000010020000100D
:100DB000185400404000001000040010A0860100FC
:100DC00000040240000802400000024048040020E5
:100DD0004C040020240E0020500400205404002065
:100DE000580400204A0E0020200E0020480E00204B
:100DF0001C3C0040010020004C0E00200077010048
:100E0000016849084900016000210160002141603A
:100E1000002181600021C160002101612121416127
:100E2000DFF86012884204D1DFF85C023D210160E6
:100E300080E0DFF85812884205D1DFF84C024FF409
:100E40007461016076E0DFF84812884205D1DFF86E
:100E500038025FF4741101606CE0DFF838128842E8
:100E600005D1DFF824025FF07461016062E0DFF811
:100E70002812884205D1DFF82402DFF8241201602D
:100E800058E0DFF82012884205D1DFF81002DFF8C1
:100E9000181201604EE0DFF81412884205D1DFF825
:100EA000FC01DFF80C12016044E0DFF80812884210
:100EB00004D17A485FF03D5101603BE0DFF8F81162
:100EC000884203D17D483D21016033E07C4988425E
:100ED00004D17A484FF4746101602BE0794988426B
:100EE00004D176485FF47411016023E076498842AA
:100EF00004D172485FF0746101601BE0734988425D
:100F000003D173486649016014E07249884203D1F5
:100F10006F48654901600DE06F49884203D16C4814
:100F20006349016006E06D49884203D168485FF07B
:100F30003D510160704710B4002203681A00684BED
:100F40001A400B68CC6823434C6923438C692343C4
:100F5000CC6923430C6A23434C6A23438C6A2343A2
:100F60004C6B23438C6B23431A4302604269D208C3
:100F7000D200CB6A0C6B23431A4342610A69426078
:100F80004A6882608968C16010BC7047C9B2002994
:100F900004D0016851F00101016003E001684908D3
:100FA000490001607047002A04D0026852F4002210
:100FB000026003E0026832F40022026001617047BF
:100FC000C9B2002904D0016851F48021016003E016
:100FD000016831F480210160704700210068C0077A
:100FE00001D5012100E000210800C0B2704710B413
:100FF00000220023304CA04201D23A4800E03A4897
:101000008A0001D5436800E00368384803400B427A
:1010100001D0012200E000221000C0B210BC7047D5
:10102000254A904201D22F4800E02F488A0003D57C
:101030002E4A1140C16002E02C4A11408160704785
:101040000B001B060BD5D2B2002A04D0436953F023
:101050008003436103E0436933F0800343618029E7
:101060000ED0D2B2002A05D0026811F01E01114341
:10107000016005E0026811F01E0132EA0101016021
:101080007047000010600240086002402860024083
:101090004060024058600240706002400C600240B4
:1010A0003D00002088600240400F0020A060024008
:1010B00000003D20B8600240106402400864024015
:1010C0002864024040640240586402407064024058
:1010D0000C64024088640240A0640240B86402408C
:1010E0003F801CF000600240006402407D0F7D0FD5
:1010F00000B585B00021002000F0F6FC002000F0D3
:10110000ADFC012000F0AAFC022000F0A7FC0320A7
:1011100000F0A4FC01A800F071FB4FF47A525621B4
:101120000220FFF731F81A4800901A4B1A4A0121A1
:101130001A4800F03FFD00F0E3FE40211848FFF799
:1011400044F800BFFDE7000080B500BF002009E0C3
:10115000C0B24110134A32F91110C0B2104A22F83D
:101160001010401CC0B220280DD20F490978012967
:10117000EED1C0B241100D4A32F91110C0B2084A86
:1011800022F81010EDE740210548FFF71EF801BDD9
:10119000E803002074030020CC0300206C0400202E
:1011A000280B0020D80D002068040020F80D002036
:1011B00080B5554988420AD101214FF4805000F092
:1011C000DEFB00214FF4805000F0D9FB1AE04F49BC
:1011D00088420AD101214FF4804000F0C0FB002179
:1011E0004FF4804000F0BBFB0CE04949884209D134
:1011F00001214FF4004000F0B2FB00214FF4004009
:1012000000F0ADFB01BD2DE9F047002202230024D0
:101210000125002600275FF0000C5FF0000E5FF054
:101220000008B0F81C904FF2400A1AEA0909A0F829
:101230001C905FF00209A0F82090B0F81C904A467C
:10124000D1F80890B9F1020F02D10024022344E042
:101250008B88002B01D1012500E002252D4B1B6856
:101260001B0205D52B4B1B6833F40003294C23606C
:10127000294B1B68C3F3881E274B1B68C3F30278F6
:10128000264B1B6813F03F0C254BB3FBFCF30EFB06
:1012900003F3B3FBF8F7CB884FF40074A34208D1F3
:1012A0003B0A0A2463438C68B3FBF4F35E1DB6B2B9
:1012B0000AE0ADB26B01B7FBF3F30A2463438C6819
:1012C000B3FBF4F35E1DB6B20A23B6FBF3F616F0D9
:1012D0000104A4B2331B5B0824029D1EADB2FE2D97
:1012E00001D302230024CD882C43234303840B889D
:1012F0004C888D88898929432143194351F4006121
:101300000A438283BDE8F087003001400038004086
:10131000003C004008380240843802400438024053
:1013200000127A00C9B2002904D0818B51F4806187
:10133000818304E0818B4FF6FF3211408183704737
:1013400081817047D2B2002A03D082881143818004
:1013500003E0828832EA01018180704710B40023E3
:101360000024C9B20909C9B20B00012199400C003F
:10137000D2B2002A03D081882143818002E0818893
:10138000A143818010BC704700220089084201D02F
:10139000012200E000221000C0B2704730B40023E8
:1013A00000221D4C2468230040F6FE748440A343B1
:1013B0000C684D682C438D682C43C96821430A0092
:1013C00012FA00F003431448036030BC7047C9B2FE
:1013D000002908D010490968012212FA00F00843D8
:1013E0000D49086008E00C490968012212FA00F072
:1013F00031EA000008490860704781B0002200927D
:10140000054A0092009A083080180090009889B22E
:10141000016001B0704700000074004030B4002249
:101420000023002400252A0047E0012393400C6894
:101430001C409C4240D1036803241500EDB26D00AE
:10144000AC40A343036003680C791500EDB26D0056
:10145000AC40234303600B79012B02D00B79022BA4
:101460001AD1836803241500EDB26D00AC40A3438C
:10147000836083684C791500EDB26D00AC40234366
:101480008360436801249440A343436043688C799C
:101490009440A4B223434360C36803241500EDB213
:1014A0006D00AC40A343C360C368CC791500EDB2B6
:1014B0006D00AC402343C360521C102AB5D330BC2E
:1014C0007047D2B2002A01D0018300E04183704707
:1014D000F0B400230024D2B211F00705EDB2AD0044
:1014E000AA40130089B2CA1010EB820289B2CD1053
:1014F00010EB85052D6A0F2611F00707FFB2BF001C
:10150000BE40B543156289B2CA1010EB8202126A5E
:101510001A43140089B2C91010EB81000462F0BCB8
:10152000704710B450F8041B81B102681218001DF6
:1015300050F8043BDC0744BFA9F10104E31852F85A
:10154000044B43F8044B091FF9D1EBE710BC70477B
:1015500080B54F4988420AD101215FF4001000F0A4
:10156000FEF900215FF4001000F0F9F91AE0494992
:1015700088420AD101215FF4800000F0F0F90021D7
:101580005FF4800000F0EBF90CE04349884209D198
:1015900001215FF4000000F0E2F900215FF4000097
:1015A00000F0DDF901BD2DE9F04385B004000D0028
:1015B0005FF0000900260427DFF8E080A08881465C
:1015C0004FF6C07010EA090900A800F017F9029858
:1015D00080463348B8FBF0F0060056EA0909A4F843
:1015E000049020884FF6FE71084020805FF00009CB
:1015F00028682C4988420CD228684000B8FBF0F7D4
:10160000BFB2042F00D2042757EA0909701C2084B6
:1016100024E0E8884BF6FF71884205D12868032151
:101620004843B8FBF0F706E0286819214843B8FBA7
:10163000F0F757F48047380501D157F0010757F408
:10164000004050EA0909B6B24FF4967000FB06F06C
:101650004FF47A7190FBF1F0401C2084A4F81C90A8
:10166000208850F001002080B4F800904FF6F5304B
:1016700010EA0909A8886989084350EA0909A4F809
:101680000090A88929890843208105B0BDE8F0832E
:101690000054004000580040005C004000127A00F6
:1016A00040420F00A1860100C9B2002904D0018880
:1016B00051F00101018004E001884FF6FE721140F3
:1016C00001807047C9B2002905D001884FF48072AB
:1016D0001143018004E001884FF6FF621140018050
:1016E0007047C9B2002905D001884FF40072114338
:1016F000018004E001884FF6FF52114001807047DD
:10170000D2B2002A02D051F0010101E011F0FE0135
:10171000C9B201827047C9B2002904D0018851F4CE
:101720008061018004E001884FF6FF3211400180A2
:101730007047C9B201827047008AC0B2704770B466
:101740000023002400250022868A3400008B050037
:101750002D0455EA04000002000A030011EA030008
:10176000884201D1012200E000221000C0B270BC0A
:10177000704782B0020000200023019300230093F1
:1017800000920A0F01920902090A019A002A03D065
:1017900000981430009003E0090C00981830009075
:1017A00000980068084201D0012000E00020C0B28B
:1017B00002B0704700220902090A0A00D14381825F
:1017C000704750F8041B61B150F8042BD30744BF95
:1017D000A9F101039A18002342F8043B091FFAD12A
:1017E000EFE77047090751EA8010DFF8BC11086085
:1017F0007047DFF8B811C0B208607047F0B400213C
:1018000000220023022400250226DFF894713F689D
:1018100017F00C073900002904D0042906D0082944
:1018200008D035E0DFF88811016034E0DFF884117A
:10183000016030E0DFF86C110968C1F38055DFF812
:101840006411096811F03F06002D0BD0DFF8641118
:10185000B1FBF6F1DFF84C211268C2F3881202FBEB
:1018600001F30AE0DFF84811B1FBF6F1DFF83421AB
:101870001268C2F3881202FB01F3DFF8281109682D
:10188000C1F30141491C4C00B3FBF4F1016002E0DB
:10189000DFF81C110160DFF80811096811F0F00190
:1018A0000909DFF814218A5C0168D14041603C4994
:1018B000096811F4E051890ADFF8FC208A5C41686C
:1018C000D14081603649096811F46041490BDFF865
:1018D000E8208A5C4168D140C160F0BC7047C9B261
:1018E000002905D03549096808433449086005E0F6
:1018F0003249096831EA0000304908607047C9B2CE
:10190000002905D02E49096808432D49086005E0E3
:101910002B49096831EA0000294908607047C9B2BB
:10192000002905D02749096808432649086005E0D1
:101930002449096831EA0000224908607047C9B2A9
:10194000002905D02049096808431F49086005E0BF
:101950001D49096831EA00001B4908607047C9B297
:10196000002905D01949096808431849086005E0AD
:101970001649096831EA0000144908607047C9B285
:10198000002905D01249096808431149086005E09B
:101990000F49096831EA00000D49086070470000EE
:1019A0000838024004380240843802406800474248
:1019B0000024F40000127A0028040020303802408D
:1019C0003438024040380240443802402038024057
:1019D000243802401C4908431C490860704710B471
:1019E000002100220F23C478002C1FD0174909685A
:1019F00011F4E061D1F5E061090AD1F10402DBB232
:101A00000B414178914082781A40114309010278D4
:101A10000F4BD154017849110E4A0123007810F080
:101A20001F0013FA00F042F821000AE00178491182
:101A3000094A0123007810F01F0013FA00F042F861
:101A4000210010BC704700000000FA050CED00E01A
:101A500000E400E000E100E080E100E01CB50400EB
:101A60000121E4B2494850F82400FFF738FFE4B2FE
:101A7000474830F81400009001208DF80400002041
:101A80008DF8060001208DF8070002208DF8050072
:101A900000A9E4B23F4850F82400FFF7BFFC13BD93
:101AA000C0B23C4951F82010C0B2394A32F8100097
:101AB00008837047C0B2374951F82010C0B2344A89
:101AC00032F8100048837047C0B2324951F82010F4
:101AD0004969C0B22E4A32F810205140C0B22D4A96
:101AE00052F820004161704730B585B004000D0008
:101AF0000121E4B2284850F82400FFF7F0FE01214C
:101B00004FF48040FFF71BFF00208DF810000020ED
:101B10008DF81300E4B2214830F81400039003A9B3
:101B2000E4B21F4850F82400FFF778FCEDB2012D15
:101B300029D1E4B21B48215CE4B21B48205C00F0D0
:101B4000F5FAE4B2194830F81400019000208DF83D
:101B5000080008208DF8090001208DF80A0001A86E
:101B600000F00EFBE4B21248205C8DF800000F205C
:101B70008DF801000F208DF8020001208DF8030080
:101B800000A8FFF72CFF05B030BD0000984C0008FE
:101B9000044D0008180400200C4D0008A225000880
:101BA00038040020133B0008123B0008AA2C000850
:101BB000423B00082DE9F04104000D0016001F0013
:101BC000DDF81880200000F02DFB200000F014F854
:101BD000C4F8E475C4F8E885C4F8EC652900C9B216
:101BE000200000F0A6FBD4F8E8050068804720003C
:101BF00000F06DFBBDE8F081002070471CB50400CB
:101C000000A9200000F092FF9DF8000010F01F00D6
:101C1000C0B2002803D002280BD005D30EE000A9E3
:101C2000200000F0BFFC10E000A9200000F0E6FC5E
:101C30000BE000A9200000F009FD06E09DF800007F
:101C400010F08001200000F04EFC002016BD10B501
:101C50000400C9B2002933D104F2743094F8111190
:101C600003293CD18168C269914217D2C169826857
:101C7000891AC161E178012903D18168C268891894
:101C8000C160C1698268914201D2C26900E0826884
:101C900092B2C168200000F0D9FF20E0D4F8E4053A
:101CA0000069002808D094F81201032804D120000C
:101CB000D4F8E41509698847200000F0D2FF0EE04F
:101CC000D4F8E4058069002809D094F812010328AB
:101CD00005D1C9B22000D4F8E425926990470020CC
:101CE00010BD38B50400C9B2002948D104F21C1552
:101CF00094F81101022837D1A868E96988420AD20C
:101D0000E869A968401AE861EA6992B2E9682000C6
:101D100000F07DFF28E0286AA968B0FBF1F201FB22
:101D2000120000280FD1286AA96888420BD3286ABC
:101D3000696A884207D200220021200000F067FF74
:101D40000020686210E0D4F8E405C068002808D0DC
:101D500094F81201032804D12000D4F8E415C968CE
:101D60008847200000F08FFF94F81601012815D154
:101D7000200000F015F8002084F816010EE0D4F8D9
:101D8000E4054069002809D094F81201032805D120
:101D9000C9B22000D4F8E42552699047002032BD32
:101DA000006902490968416000207047340E002034
:101DB00010B50400002340220021200000F004FBA5
:101DC000002340228021200000F0FEFA012084F848
:101DD0001201A078D4F8E81549688847002010BDA2
:101DE00010B50400D4F8E8050069804794F81301A1
:101DF00084F81201032084F81201002010BD80B580
:101E000090F8121180F81311042180F81211D0F803
:101E1000E805C0688047002002BD80B5D0F8E41511
:101E2000C969002903D0D0F8E415C96988470020A2
:101E300002BD10B50400C9B22000D4F8E425126830
:101E40009047D4F8E80580688047002010BD80B531
:101E5000C9B2D0F8E42552689047002002BD80B591
:101E6000D0F8E415096A8847002002BD80B5D0F893
:101E7000E415496A8847002002BD704770477047E3
:101E8000704770477047704770B51E240120FFF7F8
:101E900007FE5FF0C0519548FFF7A9F800282BD046
:101EA0005FF0C0519148FFF7BBF89048006800030D
:101EB00003D48F4A8F49012502E08F4A8F490025BC
:101EC00000200EE0C0B232F810309BB2C0B232F83F
:101ED0001060360256EA1323C0B2894E26F810303D
:101EE000401CC0B24028EDD3864B220092B28448F9
:101EF00000F056FF844805700120FFF7DBFD70BD40
:101F000080B5012210214FF47A4000F005F810212D
:101F1000002000F032F801BD10B504007B480068D5
:101F2000002801D0002027E07948006850F4805054
:101F30007749086073487749416072487649816003
:101F400070484FF47A5101806E480121C1816D487B
:101F5000012181816B4800F0A9FE4FF44070FFF72A
:101F600039FD00F06FF8200000F09AF800F012F848
:101F7000664801210160002010BD80B563480068FB
:101F8000002805D001216548FFF7CCF9002000E0CA
:101F9000012002BD00B591B001215FF40010FFF7F0
:101FA0009EFC00215148FEF7F1FF5048FEF728FF44
:101FB000002001905A4802904F480390002004905E
:101FC00040200590002006904FF4806007904FF469
:101FD000006008904FF4005009904FF480700A9010
:101FE0005FF400300B9000200C9000200D9000203A
:101FF0000E9000200F9001A93C48FEF79CFF0022A4
:102000003B493A48FEF7CFFF012210213748FFF73E
:1020100017F801213548FEF7D3FF0E208DF8000098
:102020000A208DF801000A208DF8020001208DF8A9
:10203000030000A8FFF7D3FC01212C48FEF7A6FF00
:1020400011B000BD00B583B001210620FFF747FCA9
:1020500001210620FFF743FC02208DF80400002038
:102060008DF8060000208DF8070002208DF805008D
:102070004FF48060009000A92A48FFF7CFF90522AD
:102080000A212848FFF724FA0820009000A92648D2
:10209000FFF7C4F9052203212348FFF719FA07BD0A
:1020A0001FB5040001214FF48040FFF738FC1B48A6
:1020B000FFF77EF8600802902020ADF802000020B3
:1020C000ADF804000820ADF80C004FF44070ADF8F6
:1020D00000000020ADF8060000A91048FFF793F8B3
:1020E000012201210D48FFF72DF91FBD5860024064
:1020F000280C0020F80D0020A80B0020D80D00208F
:10210000A80C0020A40D002068040020440E00202C
:10211000303802400000FA450000484300380040D3
:102120000C380040000402400008024010B40022B5
:102130000F2311F00304E4B2A400A3401A00C9B2B3
:102140008B100E4C54F8233033EA0202C9B28B10C4
:102150000A4C44F82320C9B28A10084B53F82220B5
:10216000C0B211F00303DBB29B0098401043C9B228
:102170008910024A42F8210010BC7047083801401B
:102180000021234A11008279002A35D0204A1268A2
:1021900003689A431E4B1A601E4A126803689A43EA
:1021A0001C4B1A60027989180A6803681A430A608E
:1021B0001949096802689143174A1160174909686B
:1021C00002689143154A1160417910290CD11249D6
:1021D000096802681143104A1160104909680068D3
:1021E00008430E4908600EE00949427989180A68D7
:1021F00000681043086006E0027989180A680068E0
:1022000032EA000008607047054908607047000026
:10221000003C0140043C0140083C01400C3C0140B2
:10222000143C014000B583B001210120FFF757FBAA
:102230004FF4C050009003208DF8050002208DF867
:10224000040000208DF8060000208DF8070000A98A
:102250003148FFF7E3F80A220B212F48FFF738F93E
:102260000A220C212C48FFF733F94FF4007000903C
:1022700003208DF8050000208DF8040001208DF862
:10228000060000208DF8070000A92348FFF7C6F8D4
:102290004FF48060009001208DF8060001208DF839
:1022A000070003208DF8050000A91B48FFF7B6F8CA
:1022B0000A220A211848FFF70BF901214FF4804048
:1022C000FFF73DFB01218020FFF719FB07BD80B51B
:1022D0004FF4C060FFF77EFB43208DF80000012023
:1022E0008DF8010003208DF8020001208DF8030015
:1022F00000A8FFF774FB01BD0021084A1268084BD3
:10230000B2FBF3F200FB02F00722B0FBF2F0FFE7B2
:10231000491C8842FCD27047000002405C04002047
:1023200040420F0080B54FF47A714843FFF7E4FF55
:1023300001BD10B50400C9B2200000F02DFF01203E
:1023400084F81201002084F81401002011E02821F3
:1023500001FB004101F21C1101224A700870C88083
:102360000022CA7040228A600022CA6000224A61AC
:10237000401C61788842EAD3002011E0282101FB4B
:10238000004101F2743100224A700870C8800022B6
:10239000CA7040228A600022CA6000224A61401C42
:1023A00061788842EAD3200000F0CAFF200000F0E4
:1023B00060FF0021200001F017F8200001F04FF825
:1023C000200000F0B1FF10BD38B5C9B20C0608D529
:1023D000C9B211F07F04282505FB040404F21C1483
:1023E00007E0C9B211F07F04282505FB040404F2BC
:1023F000743411F07F052570C1F3C011617092B281
:10240000A260E3706178002901D02178E180DBB21D
:10241000022B01D100212171210001F03FF90020A0
:1024200032BD80B5C9B20A0608D5C9B211F07F0223
:10243000282303FB020202F21C1207E0C9B211F0CA
:102440007F02282303FB020202F2743211F07F03A1
:102450001370C1F3C0115170110001F057F9002041
:1024600002BD38B5C9B211F07F04282505FB04046C
:1024700004F27434E2609BB263610023A361002321
:10248000637011F07F012170C178012900D12261B0
:102490002178002903D1210001F016FA02E0210081
:1024A00001F05FF9002032BD38B5C9B211F07F04E8
:1024B000282505FB040404F21C140125657011F0A5
:1024C0007F012170E26022610021A16163612178B6
:1024D000002903D1210001F0F7F902E0210001F009
:1024E00040F9002032BD80B5C9B20A0608D5C9B28C
:1024F00011F07F02282303FB020202F21C1205E006
:10250000C9B2282202FB010202F274320123937045
:1025100011F07F031370C1F3C011C9B211F00101B2
:102520005170110001F063FA002002BD80B5C9B2FC
:102530000A0608D5C9B211F07F02282303FB020264
:1025400002F21C1205E0C9B2282202FB010202F2CB
:1025500074320023937011F07F031370C1F3C01124
:10256000C9B211F001015170110001F05FFA0020B1
:1025700002BD80B5C9B20A0605D5C9B211F07F0106
:1025800000F0EBFE01E000F00BFF002002BD002296
:10259000C9B261F30A120169096811430069016057
:1025A0007047010010B500244A78002A18D0012A8B
:1025B0001CD0032A17D0052A09D0062A04D0082ADD
:1025C0000BD0092A06D014E000F0F4F813E000F074
:1025D00081F910E000F0AAF90DE000F007FA0AE036
:1025E00000F020FA07E000F038FA04E000F084FA86
:1025F00001E000F0BDFA2000C0B210BD70B50400CB
:102600000D00002694F81201032818D1A888C0B242
:1026100002280FD229002000D4F8E42592689047C0
:10262000E88800280AD1F6B2002E07D1200000F079
:1026300018FB03E02900200000F09AFA03E02900CB
:10264000200000F095FA3000C0B270BD70B50500F2
:102650000E000024B1887078002860D0012830D0A6
:10266000032840F0A48095F81201022802D0032824
:102670000BD021E0C9B2002906D0C9B2802903D00D
:10268000C9B22800FFF72FFF1AE07088002809D18F
:10269000C9B2002906D0C9B2802903D0C9B2280026
:1026A000FFF721FF31002800D5F8E4259268904714
:1026B000280000F0D6FA03E03100280000F058FAB4
:1026C00075E095F81201022802D003280BD021E012
:1026D000C9B2002906D0C9B2802903D0C9B22800E6
:1026E000FFF701FF1AE07088002812D1C9B2002953
:1026F0000CD0C9B2802909D0C9B22800FFF716FF53
:1027000031002800D5F8E42592689047280000F0B1
:10271000A8FA03E03100280000F02AFA47E095F813
:102720001201022802D003280BD03BE0C9B20029D5
:1027300006D0C9B2802903D0C9B22800FFF7D3FE62
:1027400034E0C9B2080613D5C9B211F07F002821C0
:1027500001FB005090F81E01002804D0DFF884032C
:102760000121016017E0DFF87C030021016012E025
:10277000080610D4C9B2282000FB015090F8760357
:10278000002804D0DFF85C030121016003E0DFF8DA
:102790005403002101600222DFF84813280000F0F2
:1027A00022FA03E03100280000F0E2F9FFE7200000
:1027B000C0B270BD38B504000D00688880B2000A50
:1027C000C0B2012808D0022825D003282ED0062820
:1027D00067D007286AD06EE000A9A078D4F8EC256D
:1027E00012689047E988402903D094F81211012912
:1027F00002D10821ADF80010BDF80010002968D002
:10280000E988002965D0BDF80010EA88914257D2C6
:10281000BDF8001055E000A9A078D4F8E425926A2C
:10282000904702214170C4F8F005E5E7A878002838
:1028300008D0022814D00CD304281FD017D30528A1
:1028400023D029E000A9A078D4F8EC25526890475D
:10285000D2E700A9A078D4F8EC2592689047F7E772
:1028600000A9A078D4F8EC25D2689047F0E700A939
:10287000A078D4F8EC2512699047E9E700A9A07880
:10288000D4F8EC2552699047E2E700A9A078D4F883
:10289000EC2592699047DBE72900200000F068F9F9
:1028A00017E02900200000F063F912E02900200061
:1028B00000F05EF90DE02900200000F059F908E071
:1028C000E988ADF80010BDF800200100200000F0FC
:1028D0008AF931BD38B504008888002822D1C8881B
:1028E00000281FD1887810F07F0594F81201032882
:1028F00003D1200000F03CF917E084F814512900BE
:10290000C9B22000FFF743FE200000F0AAF9EDB2A3
:10291000002D03D0022084F8120106E0012084F883
:10292000120102E0200000F023F931BD10B50400CF
:1029300048886D4A10706C480078022803D3200044
:1029400000F016F951E094F81201022802D0032891
:1029500018D047E06448007800280FD0624800781B
:1029600084F81001032084F812015F4801782000E8
:10297000FFF75FFA200000F074F902E0200000F099
:1029800070F932E05848007800280FD1022084F80E
:1029900012015548007884F810015348017820004E
:1029A000FFF755FA200000F05CF91AE04E48007875
:1029B00094F81011884211D094F810112000FFF7FC
:1029C00046FA4948007884F8100147480178200009
:1029D000FFF72FFA200000F044F902E0200000F099
:1029E00040F902E0200000F0C3F810BD80B5CA88AD
:1029F000012A02D000F0BCF813E090F81221022A5C
:102A000002D0032A05D00AE00122384900F0EBF891
:102A100007E0012200F2101100F0E5F801E000F0FB
:102A2000A7F801BD80B590F81221921E012A11D895
:102A30002F4900220A60D0F81811002905D02C492E
:102A4000096851F002012A4A11600222284900F067
:102A5000CAF801E000F08CF801BD10B504000022B6
:102A6000488801280BD10120C4F818012000D4F8AF
:102A7000E42592689047200000F0F3F830E04888A1
:102A800002282DD1087900062AD12069406889885A
:102A900089B20A0AD2B2012A07D019D3032A0CD06C
:102AA00007D3052A11D00CD312E0012161F30610DF
:102AB0000EE0022161F306100AE0032161F3061023
:102AC00006E0042161F3061002E0052161F306101F
:102AD00008490860012084F81601200000F0C1F8C0
:102AE00010BD0000380E0020520E00203C0E0020C9
:102AF000400E0020340E002010B5040094F812019E
:102B0000801E01280ED8488801280AD10020C4F868
:102B100018012000D4F8E42592689047200000F0C6
:102B2000A0F802E0200000F023F810BD90F8CC25BA
:102B30000A7090F8CD254A7090F8CE2590F8CF35E0
:102B40001B029A184A8090F8D02590F8D1351B02C4
:102B50009A188A8090F8D22590F8D3351B029A18DB
:102B6000CA80C988C0F84011012180F8111170474E
:102B700010B5040080212000FFF7B5FC00212000E3
:102B8000FFF7B1FC200000F088FF10BDF8B504008D
:102B90000D0017000026002C1AD0200000F019F8B4
:102BA0004000801C3880F6B238887055761CF6B22A
:102BB00003207055761C08E0F6B220787055641C2E
:102BC000761CF6B200207055761C20780028F3D1D0
:102BD000F1BD002101E0491C401C0278002AFAD115
:102BE0000800C0B2704710B5002492B2C0F83C2172
:102BF00092B2C0F83821022380F8113192B213004A
:102C00000A000021FFF750FC2000C0B210BD10B533
:102C1000002492B213000A000021FFF745FC2000B7
:102C2000C0B210BD10B5002492B2C0F8942392B285
:102C3000C0F89023032380F8113113009BB20A00DF
:102C40000021FFF70EFC2000C0B210BD10B500241B
:102C500013009BB20A000021FFF703FC2000C0B262
:102C600010BD38B504000025042084F811010023AC
:102C7000002200212000FFF717FC200000F00DFFCC
:102C80002800C0B232BD38B504000025052084F804
:102C900011010023002200212000FFF7E2FB2000A9
:102CA00000F0FBFE2800C0B232BD01002DE9F04F5C
:102CB0000646DFF8DC03DFF8DC130160DFF8D81329
:102CC0000068884236D1DFF8D403016006F11007AE
:102CD0000020F860B86078603860B8617861386169
:102CE00074682046002100F015FF24D04FF0874083
:102CF000214600F01DFF00F025FF054689462046CD
:102D000000F020FF04468846308800F04DFFDFF8D1
:102D10009023DFF8903300F055FF2246434601F040
:102D200075F802460B462846494600F04BFF01F075
:102D3000E1F801E0FEE70020B883B46820460021F6
:102D400000F0E8FE22D03588280200F023FF8246FA
:102D50008B46204600F0F6FE02460B46DFF84003A5
:102D6000DFF8401301F0ECF804468846284600F0EE
:102D70001BFF2246434601F049F802460B465046E7
:102D8000594600F01FFF01F0B5F800E00020F8837D
:102D900030884FF47A7190FBF1F03884BDE8F08F01
:102DA0002DE9FE4F96B0DFF8F4120968DFF8E8224B
:102DB000914200D0FEE71946103100910969009A4E
:102DC00052690792009A92690392009AD2F8009091
:102DD00052680692009A9268009BDB68189CA4894E
:102DE0000194009CA48B0594009CE48B089400241F
:102DF0004FF48075059EAD1B0D95019DC5EBC50576
:102E00000C95019D05EB450675000B95019D05EBA5
:102E100085050A95019D05EB45050995009D2D8CBD
:102E2000012DC0F21D810578DFF87062AD19069E94
:102E300095F80472BE190E9695F8046109EB4607E1
:102E40002D79019E365CDFF854C2664496F804C2C0
:102E5000674402970F9796F8047105EB470536799A
:102E6000019F10F81770DFF834C2674497F804C266
:102E70006544109597F804C106EB4C063F79DDF8E0
:102E800024C01CF800C0DFF814E2E6449EF804C237
:102E9000664411969EF804C107EB4C079EF804E0C7
:102EA000DDF804C010F82CC0DFF8F081E04498F899
:102EB00004C26744129798F804C10EEB4C0C98F8C2
:102EC0000480DDF828E01EF800E0DFF8D091F1443E
:102ED00099F804E2E644CDF84CE099F804C108EB17
:102EE0004C0C99F804A0DDF82C8018F80080DFF86D
:102EF000AC91C14499F80482E044CDF8508099F82F
:102F000004C10AEB4C0A99F80490DDF830C01CF8B3
:102F100000C0DFF888B1E344CDF810B09BF804C2DC
:102F2000E244CDF854A0DDF810C09CF804C109EBD0
:102F30004C09CDF81890DDF810C09CF80490DDF82D
:102F400038C0CCEBCC0B03EB8B03DDF808C04FF0A3
:102F5000150B0BFB0C33C5EB051C634406EB860C11
:102F600003EB4C0307EB470C03EB4C030EEB4E0C4F
:102F7000634408EB030C0E9B03EBC30302EB8302D9
:102F8000029B4FF02A0B0BFB03222E2303FB05228F
:102F9000BB1903EB430302EB03122E2303FB0E22A8
:102FA0000BFB08220AEBCA0302EB8303029A05EB30
:102FB0004505AA1806EB460502EB450207EB870517
:102FC00002EB4502CEEB0E15AA18152505FB0822CB
:102FD000CAEBCA0502EB8502ACF50035089E56B176
:102FE000089E6918079FC91B7143CE1101EB16613A
:102FF000091207950D46059E66B10D9E039FDDF8EB
:1030000014C005FB0CF507FB0655EE1105EB166524
:103010002D120395BDF85C607543012DACBF0835DA
:10302000083DEE1005EB16752D11DFF87C60B542FA
:10303000B8BF354605DB47F6BD76B542A8BF47F6B3
:10304000BC75189EF6896643169F27F81650019D99
:1030500000EBC500641C009D2D8CAC42FFF6E3AE76
:103060000098C0F800900098069C44600098826028
:103070000098C36000980161009807994161009829
:10308000039981610098008C19B0BDE8F08F0000B1
:1030900000300240C2A507F4CDB5E8B5000000201D
:1030A0001F85EB51B81E19404480FFFF0021C26804
:1030B0005FF0FF335360C2687FF08043536151F08B
:1030C000004151F40061C0688161704770B582B001
:1030D000040000250026002000900320FFF70CF9D3
:1030E000E06800690090761CBD48864201D300204C
:1030F0001CE000980028F0D50026009850F0010050
:103100000090E06800990161E06800690090761C19
:10311000B348864205D2009810F00100C0B20028E2
:10312000F2D10320FFF7E8F82800C0B276BDF0B472
:103130001C000023C578002D15D100250026A4B25F
:10314000E41C042794FBF7F42500D2B210EB8200B4
:10315000D0F8D0000022160003E00A680260761C56
:10316000091DAE42F9D31800C0B2F0BC704710B4CC
:10317000002392B2D21C042492FBF4F2D0F8D000C7
:103180000024230003E004680C605B1C091D9342CB
:10319000F9D3080010BC704730B40A0000230021A6
:1031A0000024C4700124847040248480D2B2012A97
:1031B0000DD15FF0A0430122C272082202700422E6
:1031C00042704FF4A072C280022202720CE0D2B2AE
:1031D000002A09D1834B0022C2720C2202700622FF
:1031E00042704FF4A062C280C36013F500620261B6
:1031F00000220EE010EB820413EB421515F510656A
:10320000A56110EB820413EB421515F53065656579
:10321000521C4478A242EDD313F58062426113F54B
:103220008862C0F8CC20002208E010EB820413EB87
:10323000421515F5A065C4F89050521C0478A242BE
:10324000F3D300220AE010EB82044FF4805505FB13
:10325000023515F58055C4F8D050521C0478A242AE
:10326000F1D313F56062C0F80C210800C0B230BC85
:10327000704770B504000025002000210026227A46
:10328000012A26D1E068816B31F48031607A002810
:1032900001D051F48011E06881630020E168C968C1
:1032A000080030F0400030F4800030F4003030F49A
:1032B0000020E168C8602000FFF708FFE0780128DF
:1032C00023D1052060F3440656F02006E0688660AE
:1032D0001BE0E068C06850F04000E168C860200072
:1032E000FFF7F4FE002151F4803151F4802151F4B4
:1032F000002151F40011607A002801D051F48011AE
:10330000E06881631420FFF70DF8E078012808D108
:10331000E0688668052060F3440656F02006E06801
:1033200086602800C0B270BD0021002252F0010268
:10333000C3689B681A43C06882600800C0B27047C7
:103340000021002252F00102C3689B6833EA0202A6
:10335000C06882600800C0B2704710B582B0002417
:10336000002200230093009B53F020030093009B56
:1033700061F38A130093C168009B0B61C1680969FE
:103380000091521C16498A4204D20099C1F340119F
:10339000C907F3D40320FEF7AFFF2000C0B216BD6B
:1033A00010B582B00024002100220092009A52F051
:1033B00010020092C268009B1361C26812690092F9
:1033C000491C074A914204D2009AC2F30012D20764
:1033D000F3D40320FEF790FF2000C0B216BD00001A
:1033E000410D03000000044010B50024C268D268FB
:1033F00032F0005232F08042C9B2012902D152F0BB
:10340000005204E0C9B2002901D152F08042C068E4
:10341000C2603220FEF786FF2000C0B210BDC06837
:10342000406910F00100704780B5FFF7F8FF0128F0
:1034300001D0012000E00020C0B202BD0021C2681E
:1034400052691100C0688069014008007047026934
:103450001268C9B261F30102006902607047F8B5F1
:103460000400002500200022002600270021D4F8B7
:103470000C315FF0000CC3F800C023691B681A0010
:1034800032F4C05223691A60E27A012A2AD1032158
:103490002000FFF7DCFFE06880214162802060F3BC
:1034A0001F46802060F30F06E068866216EB164028
:1034B00060F30F074FF4807060F31F47E068C0F8B7
:1034C000047117EB174060F30F07BFB2E068C0F854
:1034D000087117EB174080B250F00007BFB2E068E8
:1034E000C0F80C7110212000FFF737FF2000FFF714
:1034F00057FF206900210161206900214161206995
:103500005FF0FF31816120690021C16100210FE07E
:10351000002014EB81029269106014EB8100806935
:103520000022026114EB81008069FF228260491C45
:10353000607881420BD214EB81008069006800281A
:10354000E6D5002050F0804050F00060E1E7002117
:103550000FE0002014EB8102526D106014EB81002B
:10356000406D0022026114EB8100406DFF228260F9
:10357000491C607881420BD214EB8100406D0068D9
:103580000028E6D5002050F0804050F00060E1E7D0
:1035900000214FF48070014320690069884308438B
:1035A00021690861E07801280ED1002050F0010067
:1035B00050F00200402161F38A0050F48030402135
:1035C00061F3594021690863200000F003F82800E6
:1035D000C0B2F2BD70B5040000250026E0680021ED
:1035E0008161E0687FF0804141612000FFF75EFD6E
:1035F000E078002801D156F0100656F4006656F423
:10360000805656F4005656F4802656F4002656F09E
:103610000806E0688069B0433043E16888612800AB
:10362000C0B270BD002100698068400810F003003E
:10363000002805D0022807D004D3032802D004E0D4
:10364000032102E0022100E001210800C0B270471E
:1036500010B40021002203699B68846924685B0818
:1036600013F00303002B04D0022B05D001D3032B4E
:1036700005D1E40AE40202E0032363F30A04836948
:103680001C604FF480731A4303695B6893431A43C9
:10369000006942600800C0B210BC704770B40022DC
:1036A000002500234C78012C0AD10C7810EB8404FF
:1036B000A469012591F90060B54065F30F0309E0A5
:1036C0000C7810EB8404646D012591F90060B5401D
:1036D00065F31F432568C5F3C036F6070DD48E6821
:1036E00066F30A05CE7866F39345C98861F3995568
:1036F00055F0805555F4004525600169C9691943A5
:103700000069C1611000C0B270BC704770B40A009B
:103710000021002300245578012D0BD1157810EBE2
:103720008505AD69012692F9002016FA02F262F3CE
:103730000F040AE0157810EB85056D6D012692F9EE
:10374000002016FA02F262F31F4433F400432B60A8
:103750000269D269A2430069C2610800C0B270BCAC
:10376000704770B500240025002200234E78012EFA
:1037700062D10A7810EB8202926912680B7810EB22
:1037800083039B691B694D69002D05D1DB0CDB04AC
:10379000012565F3DC4311E04D6965F312034D69C2
:1037A0008E6875196D1E8E68B5FBF6F565F3DC4302
:1037B000CD78012D02D1012565F35E730D7810EBF4
:1037C0008505AD692B61C378012B06D10B7810EB11
:1037D00083039B690D695D610FE0CB78012B0CD0F1
:1037E0004B69002B09D0012391F9005013FA05F51C
:1037F00003695B6B2B4305696B63CB78012B08D1A5
:1038000003699B68DB0502D452F0005201E052F0DC
:10381000805252F0806252F000420B7810EB83032A
:103820009B691A60CA78012A4BD14B699BB20A780E
:10383000C968FFF77CFC44E00A7810EB8202526D05
:1038400012680B7810EB83035B6D1B694D69002DCB
:1038500006D18D6865F31203012565F3DC430EE0A4
:103860004D698E6875196D1E8E68B5FBF6F565F3AA
:10387000DC43C3F3C9458E68754365F312030D78C5
:1038800010EB85056D6D2B61C378012B05D10B788D
:1038900010EB83035B6D0D695D61CB78012B07D164
:1038A0004B79002B02D052F0005201E052F08052CE
:1038B00052F0806252F00042097810EB8100406DB6
:1038C00002602000C0B270BDFCB4002200240023BE
:1038D000002500954D78012D48D185692B682E690A
:1038E00000964E69002E09D1009EF609F601009659
:1038F0000126009F66F3D447009715E08E684F6954
:10390000BE4207D28E684E618E68009F66F306073E
:10391000009704E04E69009F66F3060700970126B2
:10392000009F66F3D4470097009E2E61C678012E53
:1039300005D10E7810EB8606B6690F69776153F0F2
:10394000806353F000432B60C378002B4BD14B694D
:10395000002B48D0012391F9001013FA01F10C4318
:103960000169496B2143006941633CE00B7810EB2E
:1039700083035B6D1B680C7810EB8404646D246911
:1039800000944C69002C0AD18C68009D64F30605F4
:1039900000950124009D64F3D44500950BE08C68EC
:1039A0004C618C68009D64F3060500950124009D20
:1039B00064F3D44500950C7810EB8404646D009D8D
:1039C0002561C478012C05D10C7810EB8404646D5A
:1039D0000D69656153F0806353F00043097810EB83
:1039E0008100406D03601000C0B2F6BC704710B497
:1039F000002200234C78012C0CD1097810EB8100B7
:103A000080690368002B01D553F0804353F4001301
:103A1000036007E0097810EB8100406D036853F400
:103A2000001303601000C0B210BC704710B4002235
:103A300000234C78012C04D10B7810EB83008069B3
:103A400003E00B7810EB8300406D036833F4001340
:103A5000CC78032C02D0C978022901D153F08053CD
:103A600003601000C0B210BC704701698969006929
:103A7000C0690140080C7047C9B210EB8101496D63
:103A800089680069406901400800704701698969D7
:103A90000069C069014088B2704782B0002100917E
:103AA000009951F0404100910121009A61F3D44204
:103AB00000921821009A61F306020092416D009A6B
:103AC0000A61C17801290ED10021426D00F2CC5368
:103AD0005361426D1268110051F000415FF0802285
:103AE0001100406D016002B07047817A00290FD04B
:103AF0000169896811F00101C9B2002908D0D0F824
:103B00000C1131F0020149084900D0F80C010160A4
:103B10007047000040EA010C5FEA4C0C07D0884275
:103B200005D14FEA400C1CF1807F98BF804270475E
:103B300000EE100A00EE901A20EE200A10EE100A95
:103B4000704706005FF0FF0C1CEAD05114BF6145BE
:103B500006E0C110400721F0E04101F160517047DB
:103B600079B900F0004100020AD0B0FA80FC00FAF6
:103B70000CF001F16051A1EB0C5101EBD02140059B
:103B8000704741020CBF40F4E0016FF000010020DB
:103B900070470000010040F10980F446404200F007
:103BA00005F851F000416047010000BF09D0B0FAAC
:103BB00080F18840C91CC1F58461090501EBD02161
:103BC00040057047F0B540F2FF7581EA030C0CF038
:103BD000004C15EA11541DBF15EA1357AC42AF4211
:103BE000E5E0BC41C1F31301C3F31303801A99410B
:103BF00043F4801304D2641E4000494180185941A7
:103C0000C90241EA5051B1FBF3F603FB1611A2FBC6
:103C10000675D7EBC020A94102D2761E8018594103
:103C2000C90241EA5051B1FBF3FE03FB1E11A2FB96
:103C30000E75D7EBC020A94103D2AEF1010E80185A
:103C40005941890241EA9051760546EA8E2EB1FB30
:103C5000F3F603FB1611A2FB0675D7EB8020A941F2
:103C600002D2761E80185941C90241EA50514EEAEB
:103C7000060EB1FBF3F603FB1611A2FB0675D7EB9C
:103C8000C020A94102D2761E80185941C90241EADA
:103C90005051B1FBF3F703FB1711A2FB0735D3EB30
:103CA000C020A94167F100070CBF004247F001079F
:103CB00066F3D5274FEA1E31B80814F5806412DD8B
:103CC000BD0775F1004250EB0E5051EB045111F558
:103CD000801F5CBF41EA0C01F0BD4CF07F6141F0F8
:103CE000E0410020F0BDBD076D0840EA0E5041F4F0
:103CF0008011D4F10104B4F120060ADAC4F12006DF
:103D00000200E04001FA06F3E1401843B2401543D7
:103D10000EE0342C13DCC6F1200445EA40056D08A2
:103D200020FA06F2154321FA06F0A1400D430021C6
:103D300075F1004250F1000051EB0C01F0BD002084
:103D40005FEA0C01F0BDCFB992185B41B3FA83F77B
:103D500004BFB2FA82F6BF190B3FB7F120062FBF9E
:103D600002FA06F3BB40C7F1200622FA06F638BF76
:103D70003343BA401CB1E419641E33E77F4231F08B
:103D80000041B1FA81F404BFB0FA80F6A4190B3CEB
:103D9000B4F120062FBF00FA06F1A140C4F12006BD
:103DA00020FA06F638BF3143A0403C1B1AE7AC426C
:103DB0001ABF05EA1357AF4212E050EA41061CBF92
:103DC00052EA4306BFE750EA4107304661461CBF4E
:103DD00041EA0551F0BD52EA430C08BFC143F0BDB2
:103DE00000204FF4001616EB410F98BF16EB430F5F
:103DF00008BF16EB410F24BFC14305E016EB430F8C
:103E00000CBF61464CEA0551F0BD000070B44FF0A4
:103E1000004591EA030C44BF6B4000F063B900BF5A
:103E2000841A71EB030603D2001BB14112197341CE
:103E30004FF4001C1CEB410F34BF7CEB430443E008
:103E40000C0DA4EB1356352E50DC45EAC323DB0AD8
:103E500045EAC121C912B6F120050DDD63FA05F668
:103E6000EB4086EA0305124218BF45F00105C01871
:103E700051F100010CD213E062FA06F5F240554010
:103E8000F3415A40B340F3405A408018594107D398
:103E900049085FEA30005FEA350528BF45F00105B3
:103EA00001F58011420875F1004250F1000041EB2C
:103EB000045170BC4FF4001C1CEB410F38BF70471D
:103EC0000020090D090570471CEB410F10D252EA82
:103ED00043060BD0BCEB410F05D80C0DAB43661E5F
:103EE000342EB5DD02E0AB438018594170BC7047F9
:103EF00070BC7047F446400D40EAC120490006D22C
:103F000000F00EF8004248BF6FF00040604700F03C
:103F100007F84FF0004188428CBF08464042604796
:103F200040F00040490DA1F58061491C05D4D1F154
:103F30001F0154BFC840C01770474FF000007047C2
:103F4000B0B581EA030C0CF0004C40F2FF7515EAA5
:103F500011541DBF15EA1357AC42AF4239E0E419C2
:103F600023EA455343F48013C90241F0004141EA7A
:103F7000505EC7021100A7FB020200284FF00000AC
:103F8000EEFB01204FF00001E3FB072118BF42F0D8
:103F90000102401800214941E3FB0E01A4F58064B1
:103FA0000F0302D252004041494154F101046CDD3B
:103FB000470872F1004250F1000051EB0451A1F5A5
:103FC00080115CBF41EA0C01B0BD4CEA05510020F4
:103FD000B0BD05EA1357AC4214BFAF4241E050EA0E
:103FE000410E1CBF52EA430E02E061460020B0BD04
:103FF00024423C441BD15FEA070EF6D0090302BFFE
:1040000001460020AEF1140EB1FA81F7AEEB0704C1
:1040100001FA07FE0C37C7F1200100FA07F7C84084
:104020004EEA000E23EA455343F48013A2E733F02F
:104030000043B3FA83F704BFB2FA82FE77440B3F22
:10404000E41BB7F1200E2FBF02FA0EF3BB40C7F1FD
:10405000200E22FA0EFE38BF43EA0E03BA40641C5B
:1040600082E750EA410E14BF52EA430E6FF000019E
:104070004FF4001717EB430F8ABF194617EB410F98
:10408000B5E74CEA05510020B0BDD4F10104B4F10C
:1040900020070FDAC4F12007520828BF42F00102BE
:1040A00010FA07F501FA07F7E1BF2A43E040384369
:1040B000E1400FE0352C98DCC7F1200452EA4002C1
:1040C00020FA07F218BF42F0010231FA07F0A140CE
:1040D0000A43002172F1004250F1000051EB0C0143
:1040E000B0BD0000841A71EB030604D26E40001BC1
:1040F000B141121973414FF4001C1CEB410F34BF46
:104100007CEB430684E00C0DA4EB1356362E7DDCCD
:10411000012E43DC45EAC32343EA525312BFD202C5
:1041200092025B08240545EAC12141EA5051D2EBD5
:10413000C020994125D407D1B0FA80F610FA06F1D3
:1041400064D00020203608E0B1FA81F6B140C6F113
:10415000200220FA02F21143B0404FEAF474B4EBAB
:10416000465434F001064FEA74040AD8D6F5001616
:10417000760D04F00044F04061FA06F25040F14040
:104180004840C00A40EA415021F0004128BF5FEAA0
:10419000500550F1000044EBD12137E045EAC3233C
:1041A000DB0A45EAC121C90AB6F120050EDD42EA63
:1041B0000242120CC5F1200603FA06F6EB4042EA71
:1041C00006056D42984161F100010DE062FA06F5C5
:1041D000F240554063FA06FC82EA0C02F3405A4072
:1041E0006D42904161EB030111F4801F05D1641E03
:1041F000620502D06D004041494121F4801143081D
:1042000075F1004350F1000041EB045170BC704760
:104210001CEB410F15D223F0004352EA43060BD0AA
:104220004FEA4C0CBCEB410F04D80C0D661E342E2B
:10423000B7DDEBE7801A994150EA410608BF00213B
:10424000E4E708BF1CEB430F28BF6FF00001DDE778
:1042500070B5040000262000FFF7E6F800283BD0E8
:104260002000FFF7EBF80500C5F3C040C00703D5F9
:10427000200000F0B4F80643C5F38040C00703D522
:10428000200000F06DF80643C5F3C020C00703D539
:10429000200000F023F80643C5F3C000C00703D593
:1042A000200000F002F90643C5F30010C00703D553
:1042B000200000F008F90643C5F30030C00703D51D
:1042C000200000F0A1F90643C5F34030C00703D534
:1042D000200000F0FBF90643300070BD10B582B03D
:1042E000040000208DF8000094F812018DF8000001
:1042F0002000DFF8D0130968496988472069816880
:10430000002050F40060E2685061A07A002825D0B7
:1043100011F00100C0B2002820D094F81501012846
:104320001CD19DF80000032818D1002050F0010096
:10433000D4F80C1109680143D4F80C21116050F035
:104340000200D4F80C1109680843D4F80C11086075
:10435000DD48006850F00600DB490860012016BD0A
:10436000F8B50400002500272000FFF78FFB0600AA
:104370000CE02900200000F0F5F8002757F0800736
:1043800014EB8500806987606D1C7608002E24D0B0
:104390003000C007F8D52900C9B2200000F0BBF9F1
:1043A000070017F00100C0B20028E2D00120A840A9
:1043B0002169496B31EA000021694863002757F001
:1043C000010714EB8500806987602900C9B22000CD
:1043D000BC4A126852689047D6E70120F2BDF8B592
:1043E0000400002500272000FFF73FFB060058E0EF
:1043F0003000C00753D52900C9B22000FFF73CFBAD
:10440000070017F00100C0B200282DD0002757F098
:10441000010714EB8500406D8760E078012810D11A
:1044200014EB8500406D0069282101FB0541D1F89E
:104430007C134003400B081A282101FB0541C1F8F9
:104440008C032900C9B220009E4A12681268904766
:10445000E078012808D1002D06D194F81101052833
:1044600002D12000FFF719FBC7F34000C00706D5B3
:10447000002757F0020714EB8500406D8760C7F3F3
:10448000C000C0070BD520008E490968896888479D
:10449000002757F0080714EB8500406D87606D1CFE
:1044A0007608002EA4D10120F2BD10B50400200032
:1044B00084490968C9688847002050F00800E1680D
:1044C0004861012010BDF8B50400002555F0100525
:1044D000E0688069A843E1688861E068066A16F0D0
:1044E0000F00282101FB004000F27437700C10F01F
:1044F0000F00012808D0022807D003281DD0042867
:104500001CD006281BD026E025E030094005400DD0
:1045100080B2002810D0C6F30A1292B2F9682000C7
:10452000FEF725FEC6F30A10F9684018F860B8696E
:10453000C6F30A110818B8610DE00CE00BE0082280
:1045400004F2CC512000FEF712FEB869C6F30A113E
:104550000818B861FFE7E06880692843E16888616E
:104560000120F2BD2DE9F04104000D0000260020DD
:10457000282101FB054101F21C177969BA69891AE2
:104580000E00B968B14200D2BE68F01C5FEA900824
:1045900014EB85008069806903E014EB8500806975
:1045A000806980B280452CD2B8697969884228D266
:1045B0007869002825D07869B969461AB868B04288
:1045C00000D2BE68F01C5FEA900833009BB22A005C
:1045D000D2B2F9682000FEF7AAFDF8683018F8603A
:1045E000B8693018B861B86979698842D5D30120B3
:1045F00097F9001088402169496B31EA0000216970
:1046000048630120BDE8F0812DE9F8430400002053
:104610000025002600275FF000085FF0000950F039
:1046200001002169496831EA0000216948600021E0
:104630002000FEF792FE00200AE014EB8001896959
:10464000FF228A6014EB8001496DFF228A60401CC2
:1046500061788842F1D320695FF0FF3181610120E8
:1046600060F30F05012060F31F452069C56156F016
:10467000080656F0010656F002062069466157F01A
:10468000010757F0080757F0020720690761206902
:10469000D0F8008038F4FE682069C0F8008020005F
:1046A000FFF7FBF95FF0000959F48059E068C0F8A2
:1046B0001490200003490968096988470120BDE872
:1046C000F28300006004002010ED00E038B5040023
:1046D0002000FEF7BDFFE068C5682000FEF7A2FFDE
:1046E000032808D10020A0704FF40070A08009209A
:1046F00060F38D2506E00120A0704020A0800520F9
:1047000060F38D25E068C560002050F40050E1683A
:104710004861012032BD0269126903695B6BCB40BD
:1047200013F0010352EAC312C9B210EB8100806991
:104730008068104070470000704710B50400FFF714
:10474000FBFF0123202281212000FDF73DFE0020F8
:1047500010BD80B58121FDF764FE002002BD10B5BB
:1047600004000B7813F06003DBB2002B13D0202B76
:1047700052D14878012805D0812807D1200000F0C7
:1047800080F849E0200000F082F8FAE72000FEF708
:10479000EFF9022041E04B78062B04D00A2B15D00C
:1047A0000B2B19D038E04B889BB21B0ADBB2212BB4
:1047B00006D14348CA880A2A01D3092200E0CA88E0
:1047C00092B201002000FEF70EFA25E001223D49D9
:1047D0002000FEF708FA1FE04888C0B2022818D26D
:1047E00088783849086037480068012806D136487B
:1047F000012101600220FDF753F90DE0324800214C
:1048000001600220FDF756F981212000FDF7B1FE7D
:1048100002E02000FEF7ACF9002010BD80B50220B8
:10482000FDF752F9002002BD10B5040081212000DF
:10483000FDF79FFE25480078012806D12023244A51
:1048400081212000FDF730FE05E02023214A81214F
:104850002000FDF729FE0320FDF736F9002010BDEA
:104860000020704780B518490968012907D1202325
:1048700000228121FDF718FE13480221016000206B
:1048800002BD80B5CA881449FEF7ADF901BD10B567
:104890000C00E18800290ED0E2880F49FEF7C2F92A
:1048A0000E4801210170E0880D490860A08880B29F
:1048B000000A0C49087010BD6D2008800A48704736
:1048C00016030020300E00202C0E0020680400206B
:1048D000F80D0020D80D0020280D0020500E0020DB
:1048E000280E0020510E00200403002080B54E4801
:1048F000006850F001004C4908604C4800210160FC
:10490000494800684A4908404749086049484A49B7
:1049100001604548006830F48020434908604748FA
:104920000021016000F005F845485FF0006101607A
:1049300001BD82B000200190002000903A4800683C
:1049400050F48030384908603748006810F400306F
:1049500000900198401C01900098002803D1019814
:10496000B0F5A06FF0D130480068800302D5012077
:10497000009001E000200090009801283ED13148CD
:10498000006850F080502F4908602F48006850F4AC
:1049900080402D4908602548244909680160234862
:1049A000006850F40040214908602048006850F435
:1049B000A0501E4908601F48244901601A48006839
:1049C00050F0807018490860174800688001FBD5D6
:1049D0001F4840F2056101601448006880088000AB
:1049E000124908601148006850F002000F49086041
:1049F0000E48006810F00C000828F9D10B48006838
:104A000030F4000009490860124813490160064863
:104A1000006850F0806004490860034800680001A5
:104A2000FBD502B070470000003802400838024051
:104A3000FFFFF6FE04380240103000240C3802401C
:104A400008ED00E040380240007000400854400784
:104A5000003C024084380240804000301220088030
:104A600028487047042008802748704780B5C0B2A6
:104A7000002805D10A0025492548FEF787F804E0FB
:104A80000A0022492348FEF781F8204802BD80B57C
:104A90000A001E492048FEF779F81C4802BD80B57F
:104AA000C0B2002805D10A0018491C48FEF76EF86C
:104AB00004E00A0015491A48FEF768F8134802BDD9
:104AC00080B5C0B2002805D10A0010491548FEF78C
:104AD0005DF804E00A000D491248FEF757F80B484C
:104AE00002BD80B5C0B2002805D10A0007490E48B2
:104AF000FEF74CF804E00A0004490B48FEF746F8BC
:104B0000024802BD0404002064040020600A002062
:104B1000BC4B0008E04B0008844C0008A84C00087F
:104B2000B84C0008C84C0008D84C00087047FEE795
:104B3000FEE7FEE7FEE7704770477047704780B5B5
:104B40001048012101700120FDF75EFB01BD80B519
:104B50000D48807A00280AD00C48006830F0060022
:104B60000A490860FFF7C2FE0748FEF7BEFF5FF480
:104B70008020FDF749FB01BD80B50348FFF768FBC6
:104B800001BD00004E0E00206C04002010ED00E07E
:104B900010B5084979441C31074C7C441A34A142B1
:104BA00006D0081D0A68511888470146A142F8D16D
:104BB00010BD00BF500000007000000053544D3382
:104BC0003220415544494F2053747265616D696EBE
:104BD0006720696E204853204D6F64650000000017
:104BE00053544D333220415544494F20537472651C
:104BF000616D696E6720696E204653204D6F646554
:104C000000000000BFCBFFFFE80900006C0400209B
:104C1000000000000FC9FFFF6C04000060020000EC
:104C200000000020000000004EF68851CEF2000186
:104C3000086840F4700008604FF00070E1EE100A60
:104C40007047000000F009F8002801D0FFF7A0FF2E
:104C50000020FCF74DFA00F002F80120704700F048
:104C600001B800000746384600F002F8FBE70000F4
:104C700080B5C046C046024A11001820ABBEFBE713
:104C80002600020053544D6963726F656C6563744E
:104C9000726F6E6963730000080000000800000076
:104CA0000800000008000000303030303030303074
:104CB0003033344600000000303030303030303097
:104CC0003033344500000000415544494F20436FC4
:104CD0006E66696700000000415544494F20496EE7
:104CE000746572666163650001488047014800474A
:104CF000ED480008F94C0008C046C046FFF794FF95
:104D0000FFF7A0FF0010002000400080010000001D
:104D1000FFF70CBFFFF70BBFFFF70ABFFFF709BF95
:104D2000FFF708BFFFF707BFFFF706BFFFF705BF95
:104D3000FFF704BFFFF7FEBFFFF7FEBFFFF7FEBFA1
:104D4000FFF7FEBFFFF7FEBFFFF7FEBFFFF7F7BE9F
:104D5000FFF7FEBFFFF7FEBFFFF7FEBFFFF7FEBF87
:104D6000FBF7F9BAFFF7FEBFFFF7FEBFFDF78CB800
:104D7000FFF7FEBFFFF7FEBFFFF7FEBFFFF7FEBF67
:104D8000FFF7FEBFFFF7FEBFFFF7FEBFFFF7FEBF57
:104D9000FFF7FEBFFFF7FEBFFFF7FEBFFFF7FEBF47
:104DA000FFF7FEBFFFF7FEBFFFF7FEBFFFF7FEBF37
:104DB000FFF7FEBFFFF7FEBFFFF7FEBFFFF7FEBF27
:104DC000FFF7FEBFFFF7FEBFFFF7FEBFFFF7FEBF17
:104DD000FFF7FEBFFFF7FEBFFFF7FEBFFFF7B7BE4F
:104DE000FFF7FEBFFFF7FEBFFFF7FEBFFFF7FEBFF7
:104DF000FBF7ADBAFFF7FEBFFFF7FEBFFFF7FEBF41
:104E0000FBF7ADBAFFF7FEBFFFF7FEBFFFF7FEBF30
:104E1000FFF7FEBFFFF7FEBFFFF7FEBFFFF7FEBFC6
:104E2000FFF7FEBFFFF7FEBFFFF7FEBFFFF7FEBFB6
:104E3000FFF7FEBFFFF7FEBFFFF7FEBFFFF7FEBFA6
:104E4000FFF79ABEFFF7FEBFFFF7FEBFFFF7FEBFFB
:104E5000FFF7FEBFFFF7FEBFFFF7FEBFFFF7FEBF86
:104E6000FFF7FEBFFFF7FEBFFFF7FEBFFFF7FEBF76
:104E7000FFF7FEBFFFF7FEBFFFF7FEBF0000000019
:104E8000001C15310F2B24400A261F3B19352E4AD2
:104E900006221B3715312A46102C25411F3B345062
:104EA000031F1834122E27430D29223E1C38314D82
:104EB00009251E3A18342D49132F2844223E375312
:104EC000011D1632102C25410B27203C1A362F4B82
:104ED00007231C3816322B47112D2642203C355112
:104EE00004201935132F28440E2A233F1D39324E32
:104EF0000A261F3B19352E4A14302945233F3854C2
:104F0000001C15310F2B24400A261F3B19352E4A51
:104F100006221B3715312A46102C25411F3B3450E1
:104F2000031F1834122E27430D29223E1C38314D01
:104F300009251E3A18342D49132F2844223E375391
:104F4000011D1632102C25410B27203C1A362F4B01
:104F500007231C3816322B47112D2642203C355191
:104F600004201935132F28440E2A233F1D39324EB1
:104F70000A261F3B19352E4A14302945233F385441
:104F80000012152717292C3E182A2D3F2F41445671
:104F9000182A2D3F2F4144563042455747595C6EE1
:104FA00017292C3E2E4043552F41445646585B6DE1
:104FB0002F41445646585B6D47595C6E5E70738551
:104FC00015272A3C2C3E41532D3F42544456596BE1
:104FD0002D3F42544456596B45575A6C5C6E718351
:104FE0002C3E41534355586A4456596B5B6D708251
:104FF0004456596B5B6D70825C6E71837385889AC1
:1050000012242739293B3E502A3C3F5141535668D0
:105010002A3C3F514153566842545769596B6E8040
:10502000293B3E504052556741535668586A6D7F40
:1050300041535668586A6D7F596B6E8070828597B0
:1050400027393C4E3E5053653F51546656686B7D40
:105050003F51546656686B7D57696C7E6E808395B0
:105060003E50536555676A7C56686B7D6D7F8294B0
:1050700056686B7D6D7F82946E80839585979AAC20
:1050800000000101030304040606070709090A0AD0
:105090000A0A0B0B0D0D0E0E101011111313141420
:1050A0000F0F1010121213131515161618181919C0
:1050B00019191A1A1C1C1D1D1F1F20202222232310
:1050C00015151616181819191B1B1C1C1E1E1F1F40
:1050D0001F1F202022222323252526262828292990
:1050E00024242525272728282A2A2B2B2D2D2E2E30
:1050F0002E2E2F2F31313232343435353737383880
:105100001C1C1D1D1F1F202022222323252526268F
:105110002626272729292A2A2C2C2D2D2F2F3030DF
:105120002B2B2C2C2E2E2F2F31313232343435357F
:1051300035353636383839393B3B3C3C3E3E3F3FCF
:105140003131323234343535373738383A3A3B3BFF
:105150003B3B3C3C3E3E3F3F41414242444445454F
:1051600040404141434344444646474749494A4AEF
:105170004A4A4B4B4D4D4E4E50505151535354543F
:1051800009026D00020100803209040000000101E3
:10519000000009240100011E0001010C240201018C
:1051A00002000100000000092403020101000100C7
:1051B00009040100000102000009040101010102CB
:1051C0000000072401020101000B2402010102106A
:1051D00001803E0009058101200001000007250132
:1051E00000000000000000000000000000000000BF
:1051F0003B470008534700085F47000800000000D5
:105200001D48000829480008614800086548000852
:105210000000000000000000B94800084F1C000812
:10522000E31C0008FD1B00081B1E0008B11D000840
:10523000FF1D0008E11D00085F1E00086D1E00082C
:1052400000000000000000005D4A0008654A0008F8
:105250008F4A00086D4A00089F4A0008C14A0008AA
:10526000E34A00087B1E00087D1E00087F1E000820
:10527000811E0008831E0008851E0008871E000886
:1052800012010002000000408304305700020102B6
:1052900003010000000C0240000C0240000C024020
:1052A000000C02400000000001020304010203049C
:1052B0000607080900000240FFFF000000C01200BE
:1052C0000100000000002000B86002400C3C0040DB
:1052D0002F00000000000028007A030AA00300202D
:0852E0000403090401000000B1
:0400000508004CF9AA
:00000001FF
